{"contracts/Project.sol":{"Project":{"abi":[{"inputs":[{"internalType":"address","name":"_creator","type":"address"},{"internalType":"uint256","name":"_minimumContribution","type":"uint256"},{"internalType":"uint256","name":"_deadline","type":"uint256"},{"internalType":"uint256","name":"_targetContribution","type":"uint256"},{"internalType":"string","name":"_projectTitle","type":"string"},{"internalType":"string","name":"_projectDes","type":"string"}],"stateMutability":"nonpayable","type":"constructor"},{"anonymous":false,"inputs":[{"indexed":false,"internalType":"uint256","name":"requestId","type":"uint256"},{"indexed":false,"internalType":"string","name":"description","type":"string"},{"indexed":false,"internalType":"uint256","name":"amount","type":"uint256"},{"indexed":false,"internalType":"uint256","name":"noOfVotes","type":"uint256"},{"indexed":false,"internalType":"bool","name":"isCompleted","type":"bool"},{"indexed":false,"internalType":"address","name":"reciptent","type":"address"}],"name":"AmountWithdrawSuccessful","type":"event"},{"anonymous":false,"inputs":[{"indexed":false,"internalType":"address","name":"contributor","type":"address"},{"indexed":false,"internalType":"uint256","name":"amount","type":"uint256"},{"indexed":false,"internalType":"uint256","name":"currentTotal","type":"uint256"}],"name":"FundingReceived","type":"event"},{"anonymous":false,"inputs":[{"indexed":false,"internalType":"uint256","name":"requestId","type":"uint256"},{"indexed":false,"internalType":"string","name":"description","type":"string"},{"indexed":false,"internalType":"uint256","name":"amount","type":"uint256"},{"indexed":false,"internalType":"uint256","name":"noOfVotes","type":"uint256"},{"indexed":false,"internalType":"bool","name":"isCompleted","type":"bool"},{"indexed":false,"internalType":"address","name":"reciptent","type":"address"}],"name":"WithdrawRequestCreated","type":"event"},{"anonymous":false,"inputs":[{"indexed":false,"internalType":"address","name":"voter","type":"address"},{"indexed":false,"internalType":"uint256","name":"totalVote","type":"uint256"}],"name":"WithdrawVote","type":"event"},{"inputs":[],"name":"completeAt","outputs":[{"internalType":"uint256","name":"","type":"uint256"}],"stateMutability":"view","type":"function"},{"inputs":[{"internalType":"address","name":"_contributor","type":"address"}],"name":"contribute","outputs":[],"stateMutability":"payable","type":"function"},{"inputs":[{"internalType":"address","name":"","type":"address"}],"name":"contributiors","outputs":[{"internalType":"uint256","name":"","type":"uint256"}],"stateMutability":"view","type":"function"},{"inputs":[{"internalType":"string","name":"_description","type":"string"},{"internalType":"uint256","name":"_amount","type":"uint256"},{"internalType":"address payable","name":"_reciptent","type":"address"}],"name":"createWithdrawRequest","outputs":[],"stateMutability":"nonpayable","type":"function"},{"inputs":[],"name":"creator","outputs":[{"internalType":"address payable","name":"","type":"address"}],"stateMutability":"view","type":"function"},{"inputs":[],"name":"deadline","outputs":[{"internalType":"uint256","name":"","type":"uint256"}],"stateMutability":"view","type":"function"},{"inputs":[],"name":"getContractBalance","outputs":[{"internalType":"uint256","name":"","type":"uint256"}],"stateMutability":"view","type":"function"},{"inputs":[],"name":"getProjectDetails","outputs":[{"internalType":"address payable","name":"projectStarter","type":"address"},{"internalType":"uint256","name":"minContribution","type":"uint256"},{"internalType":"uint256","name":"projectDeadline","type":"uint256"},{"internalType":"uint256","name":"goalAmount","type":"uint256"},{"internalType":"uint256","name":"completedTime","type":"uint256"},{"internalType":"uint256","name":"currentAmount","type":"uint256"},{"internalType":"string","name":"title","type":"string"},{"internalType":"string","name":"desc","type":"string"},{"internalType":"enum Project.State","name":"currentState","type":"uint8"},{"internalType":"uint256","name":"balance","type":"uint256"}],"stateMutability":"view","type":"function"},{"inputs":[],"name":"minimumContribution","outputs":[{"internalType":"uint256","name":"","type":"uint256"}],"stateMutability":"view","type":"function"},{"inputs":[],"name":"noOfContributers","outputs":[{"internalType":"uint256","name":"","type":"uint256"}],"stateMutability":"view","type":"function"},{"inputs":[],"name":"numOfWithdrawRequests","outputs":[{"internalType":"uint256","name":"","type":"uint256"}],"stateMutability":"view","type":"function"},{"inputs":[],"name":"projectDes","outputs":[{"internalType":"string","name":"","type":"string"}],"stateMutability":"view","type":"function"},{"inputs":[],"name":"projectTitle","outputs":[{"internalType":"string","name":"","type":"string"}],"stateMutability":"view","type":"function"},{"inputs":[],"name":"raisedAmount","outputs":[{"internalType":"uint256","name":"","type":"uint256"}],"stateMutability":"view","type":"function"},{"inputs":[],"name":"requestRefund","outputs":[{"internalType":"bool","name":"","type":"bool"}],"stateMutability":"nonpayable","type":"function"},{"inputs":[],"name":"state","outputs":[{"internalType":"enum Project.State","name":"","type":"uint8"}],"stateMutability":"view","type":"function"},{"inputs":[],"name":"targetContribution","outputs":[{"internalType":"uint256","name":"","type":"uint256"}],"stateMutability":"view","type":"function"},{"inputs":[{"internalType":"uint256","name":"_requestId","type":"uint256"}],"name":"voteWithdrawRequest","outputs":[],"stateMutability":"nonpayable","type":"function"},{"inputs":[{"internalType":"uint256","name":"_requestId","type":"uint256"}],"name":"withdrawRequestedAmount","outputs":[],"stateMutability":"nonpayable","type":"function"},{"inputs":[{"internalType":"uint256","name":"","type":"uint256"}],"name":"withdrawRequests","outputs":[{"internalType":"string","name":"description","type":"string"},{"internalType":"uint256","name":"amount","type":"uint256"},{"internalType":"uint256","name":"noOfVotes","type":"uint256"},{"internalType":"bool","name":"isCompleted","type":"bool"},{"internalType":"address payable","name":"reciptent","type":"address"}],"stateMutability":"view","type":"function"}],"evm":{"bytecode":{"linkReferences":{},"object":"60806040526000600960006101000a81548160ff021916908360028111156200002d576200002c620000f7565b5b02179055506000600c553480156200004457600080fd5b5060405162002c6438038062002c6483398181016040528101906200006a919062000359565b856000806101000a81548173ffffffffffffffffffffffffffffffffffffffff021916908373ffffffffffffffffffffffffffffffffffffffff1602179055508460018190555083600281905550826003819055508160079081620000d0919062000674565b508060089081620000e2919062000674565b5060006005819055505050505050506200075b565b7f4e487b7100000000000000000000000000000000000000000000000000000000600052602160045260246000fd5b6000604051905090565b600080fd5b600080fd5b600073ffffffffffffffffffffffffffffffffffffffff82169050919050565b600062000167826200013a565b9050919050565b62000179816200015a565b81146200018557600080fd5b50565b60008151905062000199816200016e565b92915050565b6000819050919050565b620001b4816200019f565b8114620001c057600080fd5b50565b600081519050620001d481620001a9565b92915050565b600080fd5b600080fd5b6000601f19601f8301169050919050565b7f4e487b7100000000000000000000000000000000000000000000000000000000600052604160045260246000fd5b6200022f82620001e4565b810181811067ffffffffffffffff82111715620002515762000250620001f5565b5b80604052505050565b60006200026662000126565b905062000274828262000224565b919050565b600067ffffffffffffffff821115620002975762000296620001f5565b5b620002a282620001e4565b9050602081019050919050565b60005b83811015620002cf578082015181840152602081019050620002b2565b60008484015250505050565b6000620002f2620002ec8462000279565b6200025a565b905082815260208101848484011115620003115762000310620001df565b5b6200031e848285620002af565b509392505050565b600082601f8301126200033e576200033d620001da565b5b815162000350848260208601620002db565b91505092915050565b60008060008060008060c0878903121562000379576200037862000130565b5b60006200038989828a0162000188565b96505060206200039c89828a01620001c3565b9550506040620003af89828a01620001c3565b9450506060620003c289828a01620001c3565b935050608087015167ffffffffffffffff811115620003e657620003e562000135565b5b620003f489828a0162000326565b92505060a087015167ffffffffffffffff81111562000418576200041762000135565b5b6200042689828a0162000326565b9150509295509295509295565b600081519050919050565b7f4e487b7100000000000000000000000000000000000000000000000000000000600052602260045260246000fd5b600060028204905060018216806200048657607f821691505b6020821081036200049c576200049b6200043e565b5b50919050565b60008190508160005260206000209050919050565b60006020601f8301049050919050565b600082821b905092915050565b600060088302620005067fffffffffffffffffffffffffffffffffffffffffffffffffffffffffffffffff82620004c7565b620005128683620004c7565b95508019841693508086168417925050509392505050565b6000819050919050565b6000620005556200054f62000549846200019f565b6200052a565b6200019f565b9050919050565b6000819050919050565b620005718362000534565b6200058962000580826200055c565b848454620004d4565b825550505050565b600090565b620005a062000591565b620005ad81848462000566565b505050565b5b81811015620005d557620005c960008262000596565b600181019050620005b3565b5050565b601f8211156200062457620005ee81620004a2565b620005f984620004b7565b8101602085101562000609578190505b620006216200061885620004b7565b830182620005b2565b50505b505050565b600082821c905092915050565b6000620006496000198460080262000629565b1980831691505092915050565b600062000664838362000636565b9150826002028217905092915050565b6200067f8262000433565b67ffffffffffffffff8111156200069b576200069a620001f5565b5b620006a782546200046d565b620006b4828285620005d9565b600060209050601f831160018114620006ec5760008415620006d7578287015190505b620006e3858262000656565b86555062000753565b601f198416620006fc86620004a2565b60005b828110156200072657848901518255600182019150602085019450602081019050620006ff565b8683101562000746578489015162000742601f89168262000636565b8355505b6001600288020188555050505b505050505050565b6124f9806200076b6000396000f3fe60806040526004361061011f5760003560e01c8063937e09b1116100a0578063c19d93fb11610064578063c19d93fb146103bc578063c3e20c9f146103e7578063c59ee1dc14610412578063d5cef1331461043d578063ff3a9c7e146104685761011f565b8063937e09b1146102d1578063992a7dfb146102fc578063a46752ae1461033d578063b40141bf14610366578063b82c86d6146103915761011f565b80634c4cea5a116100e75780634c4cea5a1461020d5780634e695a37146102385780636f9fb98a1461026157806373e888fd1461028c578063752e19f9146102a85761011f565b806302d05d3f1461012457806303c29d581461014f5780630a7713701461017a57806324274ee9146101b757806329dcb0cf146101e2575b600080fd5b34801561013057600080fd5b5061013961049c565b60405161014691906114d4565b60405180910390f35b34801561015b57600080fd5b506101646104c0565b604051610171919061157f565b60405180910390f35b34801561018657600080fd5b506101a1600480360381019061019c91906115f3565b61054e565b6040516101ae9190611639565b60405180910390f35b3480156101c357600080fd5b506101cc610566565b6040516101d99190611639565b60405180910390f35b3480156101ee57600080fd5b506101f761056c565b6040516102049190611639565b60405180910390f35b34801561021957600080fd5b50610222610572565b60405161022f9190611639565b60405180910390f35b34801561024457600080fd5b5061025f600480360381019061025a9190611680565b610578565b005b34801561026d57600080fd5b5061027661075d565b6040516102839190611639565b60405180910390f35b6102a660048036038101906102a191906115f3565b610765565b005b3480156102b457600080fd5b506102cf60048036038101906102ca9190611680565b61097d565b005b3480156102dd57600080fd5b506102e6610c8c565b6040516102f39190611639565b60405180910390f35b34801561030857600080fd5b50610323600480360381019061031e9190611680565b610c92565b6040516103349594939291906116c8565b60405180910390f35b34801561034957600080fd5b50610364600480360381019061035f9190611883565b610d7d565b005b34801561037257600080fd5b5061037b610fc7565b6040516103889190611639565b60405180910390f35b34801561039d57600080fd5b506103a6610fcd565b6040516103b39190611639565b60405180910390f35b3480156103c857600080fd5b506103d1610fd3565b6040516103de9190611969565b60405180910390f35b3480156103f357600080fd5b506103fc610fe6565b604051610409919061157f565b60405180910390f35b34801561041e57600080fd5b50610427611074565b6040516104349190611639565b60405180910390f35b34801561044957600080fd5b5061045261107a565b60405161045f9190611984565b60405180910390f35b34801561047457600080fd5b5061047d611292565b6040516104939a9998979695949392919061199f565b60405180910390f35b60008054906101000a900473ffffffffffffffffffffffffffffffffffffffff1681565b600880546104cd90611a78565b80601f01602080910402602001604051908101604052809291908181526020018280546104f990611a78565b80156105465780601f1061051b57610100808354040283529160200191610546565b820191906000526020600020905b81548152906001019060200180831161052957829003601f168201915b505050505081565b600a6020528060005260406000206000915090505481565b60065481565b60025481565b60045481565b6000600a60003373ffffffffffffffffffffffffffffffffffffffff1673ffffffffffffffffffffffffffffffffffffffff16815260200190815260200160002054116105fa576040517f08c379a00000000000000000000000000000000000000000000000000000000081526004016105f190611af5565b60405180910390fd5b6000600b60008381526020019081526020016000209050600015158160030160003373ffffffffffffffffffffffffffffffffffffffff1673ffffffffffffffffffffffffffffffffffffffff16815260200190815260200160002060009054906101000a900460ff161515146106a6576040517f08c379a000000000000000000000000000000000000000000000000000000000815260040161069d90611b61565b60405180910390fd5b60018160030160003373ffffffffffffffffffffffffffffffffffffffff1673ffffffffffffffffffffffffffffffffffffffff16815260200190815260200160002060006101000a81548160ff02191690831515021790555060018160020160008282546107159190611bb0565b925050819055507fa2925e4595bf873fa82c22a1a89809777347023bf2b502d32710157a5eb8199c338260020154604051610751929190611bf3565b60405180910390a15050565b600047905090565b600080600281111561077a576107796118f2565b5b600960009054906101000a900460ff16600281111561079c5761079b6118f2565b5b146107dc576040517f08c379a00000000000000000000000000000000000000000000000000000000081526004016107d390611c68565b60405180910390fd5b6002544210610820576040517f08c379a000000000000000000000000000000000000000000000000000000000815260040161081790611cd4565b60405180910390fd5b600154341015610865576040517f08c379a000000000000000000000000000000000000000000000000000000000815260040161085c90611d40565b60405180910390fd5b6000600a60008473ffffffffffffffffffffffffffffffffffffffff1673ffffffffffffffffffffffffffffffffffffffff16815260200190815260200160002054036108c557600660008154809291906108bf90611d60565b91905055505b34600a60008473ffffffffffffffffffffffffffffffffffffffff1673ffffffffffffffffffffffffffffffffffffffff16815260200190815260200160002060008282546109149190611bb0565b92505081905550346005600082825461092d9190611bb0565b925050819055507f5cdc4ab8d637538ead6cc1904d4160343656c8c82bd266635cfd31ac008fffe0823460055460405161096993929190611da8565b60405180910390a1610979611418565b5050565b60008054906101000a900473ffffffffffffffffffffffffffffffffffffffff1673ffffffffffffffffffffffffffffffffffffffff163373ffffffffffffffffffffffffffffffffffffffff1614610a0b576040517f08c379a0000000000000000000000000000000000000000000000000000000008152600401610a0290611e51565b60405180910390fd5b6002806002811115610a2057610a1f6118f2565b5b600960009054906101000a900460ff166002811115610a4257610a416118f2565b5b14610a82576040517f08c379a0000000000000000000000000000000000000000000000000000000008152600401610a7990611c68565b60405180910390fd5b6002544210610ac6576040517f08c379a0000000000000000000000000000000000000000000000000000000008152600401610abd90611cd4565b60405180910390fd5b6000600b60008481526020019081526020016000209050600015158160040160009054906101000a900460ff16151514610b35576040517f08c379a0000000000000000000000000000000000000000000000000000000008152600401610b2c90611ebd565b60405180910390fd5b6002600654610b449190611f0c565b81600201541015610b8a576040517f08c379a0000000000000000000000000000000000000000000000000000000008152600401610b8190611faf565b60405180910390fd5b8060040160019054906101000a900473ffffffffffffffffffffffffffffffffffffffff1673ffffffffffffffffffffffffffffffffffffffff166108fc82600101549081150290604051600060405180830381858888f19350505050158015610bf8573d6000803e3d6000fd5b5060018160040160006101000a81548160ff0219169083151502179055507f2af8d60b878c5e8de57c8ff96e03c6cfab6de26b47e989757345cc1dceaac99883826000018360010154846002015460018660040160019054906101000a900473ffffffffffffffffffffffffffffffffffffffff16604051610c7f969594939291906120c7565b60405180910390a1505050565b60015481565b600b602052806000526040600020600091509050806000018054610cb590611a78565b80601f0160208091040260200160405190810160405280929190818152602001828054610ce190611a78565b8015610d2e5780601f10610d0357610100808354040283529160200191610d2e565b820191906000526020600020905b815481529060010190602001808311610d1157829003601f168201915b5050505050908060010154908060020154908060040160009054906101000a900460ff16908060040160019054906101000a900473ffffffffffffffffffffffffffffffffffffffff16905085565b60008054906101000a900473ffffffffffffffffffffffffffffffffffffffff1673ffffffffffffffffffffffffffffffffffffffff163373ffffffffffffffffffffffffffffffffffffffff1614610e0b576040517f08c379a0000000000000000000000000000000000000000000000000000000008152600401610e0290611e51565b60405180910390fd5b6002806002811115610e2057610e1f6118f2565b5b600960009054906101000a900460ff166002811115610e4257610e416118f2565b5b14610e82576040517f08c379a0000000000000000000000000000000000000000000000000000000008152600401610e7990611c68565b60405180910390fd5b6002544210610ec6576040517f08c379a0000000000000000000000000000000000000000000000000000000008152600401610ebd90611cd4565b60405180910390fd5b6000600b6000600c5481526020019081526020016000209050600c6000815480929190610ef290611d60565b919050555084816000019081610f0891906122bc565b508381600101819055506000816002018190555060008160040160006101000a81548160ff021916908315150217905550828160040160016101000a81548173ffffffffffffffffffffffffffffffffffffffff021916908373ffffffffffffffffffffffffffffffffffffffff1602179055507f9883a4e4f8698e4cc93bafb8d0d2376cb8c51dd322cb9fd80d02c691fcdea503600c54868660008088604051610fb8969594939291906123c9565b60405180910390a15050505050565b600c5481565b60035481565b600960009054906101000a900460ff1681565b60078054610ff390611a78565b80601f016020809104026020016040519081016040528092919081815260200182805461101f90611a78565b801561106c5780601f106110415761010080835404028352916020019161106c565b820191906000526020600020905b81548152906001019060200180831161104f57829003601f168201915b505050505081565b60055481565b60006001806002811115611091576110906118f2565b5b600960009054906101000a900460ff1660028111156110b3576110b26118f2565b5b146110f3576040517f08c379a00000000000000000000000000000000000000000000000000000000081526004016110ea90611c68565b60405180910390fd5b6002544210611137576040517f08c379a000000000000000000000000000000000000000000000000000000000815260040161112e90611cd4565b60405180910390fd5b6000600a60003373ffffffffffffffffffffffffffffffffffffffff1673ffffffffffffffffffffffffffffffffffffffff16815260200190815260200160002054116111b9576040517f08c379a00000000000000000000000000000000000000000000000000000000081526004016111b0906124a3565b60405180910390fd5b60003390508073ffffffffffffffffffffffffffffffffffffffff166108fc600a60003373ffffffffffffffffffffffffffffffffffffffff1673ffffffffffffffffffffffffffffffffffffffff168152602001908152602001600020549081150290604051600060405180830381858888f19350505050158015611243573d6000803e3d6000fd5b506000600a60003373ffffffffffffffffffffffffffffffffffffffff1673ffffffffffffffffffffffffffffffffffffffff1681526020019081526020016000208190555060019250505090565b60008060008060008060608060008060008054906101000a900473ffffffffffffffffffffffffffffffffffffffff16995060015498506002549750600354965060045495506005549450600780546112ea90611a78565b80601f016020809104026020016040519081016040528092919081815260200182805461131690611a78565b80156113635780601f1061133857610100808354040283529160200191611363565b820191906000526020600020905b81548152906001019060200180831161134657829003601f168201915b505050505093506008805461137790611a78565b80601f01602080910402602001604051908101604052809291908181526020018280546113a390611a78565b80156113f05780601f106113c5576101008083540402835291602001916113f0565b820191906000526020600020905b8154815290600101906020018083116113d357829003601f168201915b50505050509250600960009054906101000a900460ff16915047905090919293949596979899565b60035460055410611453576002600960006101000a81548160ff02191690836002811115611449576114486118f2565b5b021790555061148a565b600254421115611489576001600960006101000a81548160ff02191690836002811115611483576114826118f2565b5b02179055505b5b42600481905550565b600073ffffffffffffffffffffffffffffffffffffffff82169050919050565b60006114be82611493565b9050919050565b6114ce816114b3565b82525050565b60006020820190506114e960008301846114c5565b92915050565b600081519050919050565b600082825260208201905092915050565b60005b8381101561152957808201518184015260208101905061150e565b60008484015250505050565b6000601f19601f8301169050919050565b6000611551826114ef565b61155b81856114fa565b935061156b81856020860161150b565b61157481611535565b840191505092915050565b600060208201905081810360008301526115998184611546565b905092915050565b6000604051905090565b600080fd5b600080fd5b60006115c082611493565b9050919050565b6115d0816115b5565b81146115db57600080fd5b50565b6000813590506115ed816115c7565b92915050565b600060208284031215611609576116086115ab565b5b6000611617848285016115de565b91505092915050565b6000819050919050565b61163381611620565b82525050565b600060208201905061164e600083018461162a565b92915050565b61165d81611620565b811461166857600080fd5b50565b60008135905061167a81611654565b92915050565b600060208284031215611696576116956115ab565b5b60006116a48482850161166b565b91505092915050565b60008115159050919050565b6116c2816116ad565b82525050565b600060a08201905081810360008301526116e28188611546565b90506116f1602083018761162a565b6116fe604083018661162a565b61170b60608301856116b9565b61171860808301846114c5565b9695505050505050565b600080fd5b600080fd5b7f4e487b7100000000000000000000000000000000000000000000000000000000600052604160045260246000fd5b61176482611535565b810181811067ffffffffffffffff821117156117835761178261172c565b5b80604052505050565b60006117966115a1565b90506117a2828261175b565b919050565b600067ffffffffffffffff8211156117c2576117c161172c565b5b6117cb82611535565b9050602081019050919050565b82818337600083830152505050565b60006117fa6117f5846117a7565b61178c565b90508281526020810184848401111561181657611815611727565b5b6118218482856117d8565b509392505050565b600082601f83011261183e5761183d611722565b5b813561184e8482602086016117e7565b91505092915050565b611860816114b3565b811461186b57600080fd5b50565b60008135905061187d81611857565b92915050565b60008060006060848603121561189c5761189b6115ab565b5b600084013567ffffffffffffffff8111156118ba576118b96115b0565b5b6118c686828701611829565b93505060206118d78682870161166b565b92505060406118e88682870161186e565b9150509250925092565b7f4e487b7100000000000000000000000000000000000000000000000000000000600052602160045260246000fd5b60038110611932576119316118f2565b5b50565b600081905061194382611921565b919050565b600061195382611935565b9050919050565b61196381611948565b82525050565b600060208201905061197e600083018461195a565b92915050565b600060208201905061199960008301846116b9565b92915050565b6000610140820190506119b5600083018d6114c5565b6119c2602083018c61162a565b6119cf604083018b61162a565b6119dc606083018a61162a565b6119e9608083018961162a565b6119f660a083018861162a565b81810360c0830152611a088187611546565b905081810360e0830152611a1c8186611546565b9050611a2c61010083018561195a565b611a3a61012083018461162a565b9b9a5050505050505050505050565b7f4e487b7100000000000000000000000000000000000000000000000000000000600052602260045260246000fd5b60006002820490506001821680611a9057607f821691505b602082108103611aa357611aa2611a49565b5b50919050565b7f4f6e6c7920636f6e7472696275746f722063616e20766f746520210000000000600082015250565b6000611adf601b836114fa565b9150611aea82611aa9565b602082019050919050565b60006020820190508181036000830152611b0e81611ad2565b9050919050565b7f596f7520616c726561647920766f746564202100000000000000000000000000600082015250565b6000611b4b6013836114fa565b9150611b5682611b15565b602082019050919050565b60006020820190508181036000830152611b7a81611b3e565b9050919050565b7f4e487b7100000000000000000000000000000000000000000000000000000000600052601160045260246000fd5b6000611bbb82611620565b9150611bc683611620565b9250828201905080821115611bde57611bdd611b81565b5b92915050565b611bed816115b5565b82525050565b6000604082019050611c086000830185611be4565b611c15602083018461162a565b9392505050565b7f496e76616c696420737461746500000000000000000000000000000000000000600082015250565b6000611c52600d836114fa565b9150611c5d82611c1c565b602082019050919050565b60006020820190508181036000830152611c8181611c45565b9050919050565b7f446561646c696e65206861732070617373656420210000000000000000000000600082015250565b6000611cbe6015836114fa565b9150611cc982611c88565b602082019050919050565b60006020820190508181036000830152611ced81611cb1565b9050919050565b7f436f6e747269627574696f6e20616d6f756e7420697320746f6f206c6f772021600082015250565b6000611d2a6020836114fa565b9150611d3582611cf4565b602082019050919050565b60006020820190508181036000830152611d5981611d1d565b9050919050565b6000611d6b82611620565b91507fffffffffffffffffffffffffffffffffffffffffffffffffffffffffffffffff8203611d9d57611d9c611b81565b5b600182019050919050565b6000606082019050611dbd6000830186611be4565b611dca602083018561162a565b611dd7604083018461162a565b949350505050565b7f596f7520646f6e7420686176652061636365737320746f20706572666f726d2060008201527f74686973206f7065726174696f6e202100000000000000000000000000000000602082015250565b6000611e3b6030836114fa565b9150611e4682611ddf565b604082019050919050565b60006020820190508181036000830152611e6a81611e2e565b9050919050565b7f5265717565737420616c726561647920636f6d706c6574656400000000000000600082015250565b6000611ea76019836114fa565b9150611eb282611e71565b602082019050919050565b60006020820190508181036000830152611ed681611e9a565b9050919050565b7f4e487b7100000000000000000000000000000000000000000000000000000000600052601260045260246000fd5b6000611f1782611620565b9150611f2283611620565b925082611f3257611f31611edd565b5b828204905092915050565b7f4174206c656173742035302520636f6e7472696275746f72206e65656420746f60008201527f20766f746520666f722074686973207265717565737400000000000000000000602082015250565b6000611f996036836114fa565b9150611fa482611f3d565b604082019050919050565b60006020820190508181036000830152611fc881611f8c565b9050919050565b60008190508160005260206000209050919050565b60008154611ff181611a78565b611ffb81866114fa565b94506001821660008114612016576001811461202c5761205f565b60ff19831686528115156020028601935061205f565b61203585611fcf565b60005b8381101561205757815481890152600182019150602081019050612038565b808801955050505b50505092915050565b6000819050919050565b600061208d61208861208384611493565b612068565b611493565b9050919050565b600061209f82612072565b9050919050565b60006120b182612094565b9050919050565b6120c1816120a6565b82525050565b600060c0820190506120dc600083018961162a565b81810360208301526120ee8188611fe4565b90506120fd604083018761162a565b61210a606083018661162a565b61211760808301856116b9565b61212460a08301846120b8565b979650505050505050565b60006020601f8301049050919050565b600082821b905092915050565b60006008830261217c7fffffffffffffffffffffffffffffffffffffffffffffffffffffffffffffffff8261213f565b612186868361213f565b95508019841693508086168417925050509392505050565b60006121b96121b46121af84611620565b612068565b611620565b9050919050565b6000819050919050565b6121d38361219e565b6121e76121df826121c0565b84845461214c565b825550505050565b600090565b6121fc6121ef565b6122078184846121ca565b505050565b5b8181101561222b576122206000826121f4565b60018101905061220d565b5050565b601f8211156122705761224181611fcf565b61224a8461212f565b81016020851015612259578190505b61226d6122658561212f565b83018261220c565b50505b505050565b600082821c905092915050565b600061229360001984600802612275565b1980831691505092915050565b60006122ac8383612282565b9150826002028217905092915050565b6122c5826114ef565b67ffffffffffffffff8111156122de576122dd61172c565b5b6122e88254611a78565b6122f382828561222f565b600060209050601f8311600181146123265760008415612314578287015190505b61231e85826122a0565b865550612386565b601f19841661233486611fcf565b60005b8281101561235c57848901518255600182019150602085019450602081019050612337565b868310156123795784890151612375601f891682612282565b8355505b6001600288020188555050505b505050505050565b6000819050919050565b60006123b36123ae6123a98461238e565b612068565b611620565b9050919050565b6123c381612398565b82525050565b600060c0820190506123de600083018961162a565b81810360208301526123f08188611546565b90506123ff604083018761162a565b61240c60608301866123ba565b61241960808301856116b9565b61242660a08301846120b8565b979650505050505050565b7f596f7520646f6e74206861766520616e7920636f6e747269627574656420616d60008201527f6f756e7420210000000000000000000000000000000000000000000000000000602082015250565b600061248d6026836114fa565b915061249882612431565b604082019050919050565b600060208201905081810360008301526124bc81612480565b905091905056fea2646970667358221220843df024565625330eb549fe482e67c6017d93881171bfa11ead734719477e1a64736f6c63430008120033","opcodes":"PUSH1 0x80 PUSH1 0x40 MSTORE PUSH1 0x0 PUSH1 0x9 PUSH1 0x0 PUSH2 0x100 EXP DUP2 SLOAD DUP2 PUSH1 0xFF MUL NOT AND SWAP1 DUP4 PUSH1 0x2 DUP2 GT ISZERO PUSH3 0x2D JUMPI PUSH3 0x2C PUSH3 0xF7 JUMP JUMPDEST JUMPDEST MUL OR SWAP1 SSTORE POP PUSH1 0x0 PUSH1 0xC SSTORE CALLVALUE DUP1 ISZERO PUSH3 0x44 JUMPI PUSH1 0x0 DUP1 REVERT JUMPDEST POP PUSH1 0x40 MLOAD PUSH3 0x2C64 CODESIZE SUB DUP1 PUSH3 0x2C64 DUP4 CODECOPY DUP2 DUP2 ADD PUSH1 0x40 MSTORE DUP2 ADD SWAP1 PUSH3 0x6A SWAP2 SWAP1 PUSH3 0x359 JUMP JUMPDEST DUP6 PUSH1 0x0 DUP1 PUSH2 0x100 EXP DUP2 SLOAD DUP2 PUSH20 0xFFFFFFFFFFFFFFFFFFFFFFFFFFFFFFFFFFFFFFFF MUL NOT AND SWAP1 DUP4 PUSH20 0xFFFFFFFFFFFFFFFFFFFFFFFFFFFFFFFFFFFFFFFF AND MUL OR SWAP1 SSTORE POP DUP5 PUSH1 0x1 DUP2 SWAP1 SSTORE POP DUP4 PUSH1 0x2 DUP2 SWAP1 SSTORE POP DUP3 PUSH1 0x3 DUP2 SWAP1 SSTORE POP DUP2 PUSH1 0x7 SWAP1 DUP2 PUSH3 0xD0 SWAP2 SWAP1 PUSH3 0x674 JUMP JUMPDEST POP DUP1 PUSH1 0x8 SWAP1 DUP2 PUSH3 0xE2 SWAP2 SWAP1 PUSH3 0x674 JUMP JUMPDEST POP PUSH1 0x0 PUSH1 0x5 DUP2 SWAP1 SSTORE POP POP POP POP POP POP POP PUSH3 0x75B JUMP JUMPDEST PUSH32 0x4E487B7100000000000000000000000000000000000000000000000000000000 PUSH1 0x0 MSTORE PUSH1 0x21 PUSH1 0x4 MSTORE PUSH1 0x24 PUSH1 0x0 REVERT JUMPDEST PUSH1 0x0 PUSH1 0x40 MLOAD SWAP1 POP SWAP1 JUMP JUMPDEST PUSH1 0x0 DUP1 REVERT JUMPDEST PUSH1 0x0 DUP1 REVERT JUMPDEST PUSH1 0x0 PUSH20 0xFFFFFFFFFFFFFFFFFFFFFFFFFFFFFFFFFFFFFFFF DUP3 AND SWAP1 POP SWAP2 SWAP1 POP JUMP JUMPDEST PUSH1 0x0 PUSH3 0x167 DUP3 PUSH3 0x13A JUMP JUMPDEST SWAP1 POP SWAP2 SWAP1 POP JUMP JUMPDEST PUSH3 0x179 DUP2 PUSH3 0x15A JUMP JUMPDEST DUP2 EQ PUSH3 0x185 JUMPI PUSH1 0x0 DUP1 REVERT JUMPDEST POP JUMP JUMPDEST PUSH1 0x0 DUP2 MLOAD SWAP1 POP PUSH3 0x199 DUP2 PUSH3 0x16E JUMP JUMPDEST SWAP3 SWAP2 POP POP JUMP JUMPDEST PUSH1 0x0 DUP2 SWAP1 POP SWAP2 SWAP1 POP JUMP JUMPDEST PUSH3 0x1B4 DUP2 PUSH3 0x19F JUMP JUMPDEST DUP2 EQ PUSH3 0x1C0 JUMPI PUSH1 0x0 DUP1 REVERT JUMPDEST POP JUMP JUMPDEST PUSH1 0x0 DUP2 MLOAD SWAP1 POP PUSH3 0x1D4 DUP2 PUSH3 0x1A9 JUMP JUMPDEST SWAP3 SWAP2 POP POP JUMP JUMPDEST PUSH1 0x0 DUP1 REVERT JUMPDEST PUSH1 0x0 DUP1 REVERT JUMPDEST PUSH1 0x0 PUSH1 0x1F NOT PUSH1 0x1F DUP4 ADD AND SWAP1 POP SWAP2 SWAP1 POP JUMP JUMPDEST PUSH32 0x4E487B7100000000000000000000000000000000000000000000000000000000 PUSH1 0x0 MSTORE PUSH1 0x41 PUSH1 0x4 MSTORE PUSH1 0x24 PUSH1 0x0 REVERT JUMPDEST PUSH3 0x22F DUP3 PUSH3 0x1E4 JUMP JUMPDEST DUP2 ADD DUP2 DUP2 LT PUSH8 0xFFFFFFFFFFFFFFFF DUP3 GT OR ISZERO PUSH3 0x251 JUMPI PUSH3 0x250 PUSH3 0x1F5 JUMP JUMPDEST JUMPDEST DUP1 PUSH1 0x40 MSTORE POP POP POP JUMP JUMPDEST PUSH1 0x0 PUSH3 0x266 PUSH3 0x126 JUMP JUMPDEST SWAP1 POP PUSH3 0x274 DUP3 DUP3 PUSH3 0x224 JUMP JUMPDEST SWAP2 SWAP1 POP JUMP JUMPDEST PUSH1 0x0 PUSH8 0xFFFFFFFFFFFFFFFF DUP3 GT ISZERO PUSH3 0x297 JUMPI PUSH3 0x296 PUSH3 0x1F5 JUMP JUMPDEST JUMPDEST PUSH3 0x2A2 DUP3 PUSH3 0x1E4 JUMP JUMPDEST SWAP1 POP PUSH1 0x20 DUP2 ADD SWAP1 POP SWAP2 SWAP1 POP JUMP JUMPDEST PUSH1 0x0 JUMPDEST DUP4 DUP2 LT ISZERO PUSH3 0x2CF JUMPI DUP1 DUP3 ADD MLOAD DUP2 DUP5 ADD MSTORE PUSH1 0x20 DUP2 ADD SWAP1 POP PUSH3 0x2B2 JUMP JUMPDEST PUSH1 0x0 DUP5 DUP5 ADD MSTORE POP POP POP POP JUMP JUMPDEST PUSH1 0x0 PUSH3 0x2F2 PUSH3 0x2EC DUP5 PUSH3 0x279 JUMP JUMPDEST PUSH3 0x25A JUMP JUMPDEST SWAP1 POP DUP3 DUP2 MSTORE PUSH1 0x20 DUP2 ADD DUP5 DUP5 DUP5 ADD GT ISZERO PUSH3 0x311 JUMPI PUSH3 0x310 PUSH3 0x1DF JUMP JUMPDEST JUMPDEST PUSH3 0x31E DUP5 DUP3 DUP6 PUSH3 0x2AF JUMP JUMPDEST POP SWAP4 SWAP3 POP POP POP JUMP JUMPDEST PUSH1 0x0 DUP3 PUSH1 0x1F DUP4 ADD SLT PUSH3 0x33E JUMPI PUSH3 0x33D PUSH3 0x1DA JUMP JUMPDEST JUMPDEST DUP2 MLOAD PUSH3 0x350 DUP5 DUP3 PUSH1 0x20 DUP7 ADD PUSH3 0x2DB JUMP JUMPDEST SWAP2 POP POP SWAP3 SWAP2 POP POP JUMP JUMPDEST PUSH1 0x0 DUP1 PUSH1 0x0 DUP1 PUSH1 0x0 DUP1 PUSH1 0xC0 DUP8 DUP10 SUB SLT ISZERO PUSH3 0x379 JUMPI PUSH3 0x378 PUSH3 0x130 JUMP JUMPDEST JUMPDEST PUSH1 0x0 PUSH3 0x389 DUP10 DUP3 DUP11 ADD PUSH3 0x188 JUMP JUMPDEST SWAP7 POP POP PUSH1 0x20 PUSH3 0x39C DUP10 DUP3 DUP11 ADD PUSH3 0x1C3 JUMP JUMPDEST SWAP6 POP POP PUSH1 0x40 PUSH3 0x3AF DUP10 DUP3 DUP11 ADD PUSH3 0x1C3 JUMP JUMPDEST SWAP5 POP POP PUSH1 0x60 PUSH3 0x3C2 DUP10 DUP3 DUP11 ADD PUSH3 0x1C3 JUMP JUMPDEST SWAP4 POP POP PUSH1 0x80 DUP8 ADD MLOAD PUSH8 0xFFFFFFFFFFFFFFFF DUP2 GT ISZERO PUSH3 0x3E6 JUMPI PUSH3 0x3E5 PUSH3 0x135 JUMP JUMPDEST JUMPDEST PUSH3 0x3F4 DUP10 DUP3 DUP11 ADD PUSH3 0x326 JUMP JUMPDEST SWAP3 POP POP PUSH1 0xA0 DUP8 ADD MLOAD PUSH8 0xFFFFFFFFFFFFFFFF DUP2 GT ISZERO PUSH3 0x418 JUMPI PUSH3 0x417 PUSH3 0x135 JUMP JUMPDEST JUMPDEST PUSH3 0x426 DUP10 DUP3 DUP11 ADD PUSH3 0x326 JUMP JUMPDEST SWAP2 POP POP SWAP3 SWAP6 POP SWAP3 SWAP6 POP SWAP3 SWAP6 JUMP JUMPDEST PUSH1 0x0 DUP2 MLOAD SWAP1 POP SWAP2 SWAP1 POP JUMP JUMPDEST PUSH32 0x4E487B7100000000000000000000000000000000000000000000000000000000 PUSH1 0x0 MSTORE PUSH1 0x22 PUSH1 0x4 MSTORE PUSH1 0x24 PUSH1 0x0 REVERT JUMPDEST PUSH1 0x0 PUSH1 0x2 DUP3 DIV SWAP1 POP PUSH1 0x1 DUP3 AND DUP1 PUSH3 0x486 JUMPI PUSH1 0x7F DUP3 AND SWAP2 POP JUMPDEST PUSH1 0x20 DUP3 LT DUP2 SUB PUSH3 0x49C JUMPI PUSH3 0x49B PUSH3 0x43E JUMP JUMPDEST JUMPDEST POP SWAP2 SWAP1 POP JUMP JUMPDEST PUSH1 0x0 DUP2 SWAP1 POP DUP2 PUSH1 0x0 MSTORE PUSH1 0x20 PUSH1 0x0 KECCAK256 SWAP1 POP SWAP2 SWAP1 POP JUMP JUMPDEST PUSH1 0x0 PUSH1 0x20 PUSH1 0x1F DUP4 ADD DIV SWAP1 POP SWAP2 SWAP1 POP JUMP JUMPDEST PUSH1 0x0 DUP3 DUP3 SHL SWAP1 POP SWAP3 SWAP2 POP POP JUMP JUMPDEST PUSH1 0x0 PUSH1 0x8 DUP4 MUL PUSH3 0x506 PUSH32 0xFFFFFFFFFFFFFFFFFFFFFFFFFFFFFFFFFFFFFFFFFFFFFFFFFFFFFFFFFFFFFFFF DUP3 PUSH3 0x4C7 JUMP JUMPDEST PUSH3 0x512 DUP7 DUP4 PUSH3 0x4C7 JUMP JUMPDEST SWAP6 POP DUP1 NOT DUP5 AND SWAP4 POP DUP1 DUP7 AND DUP5 OR SWAP3 POP POP POP SWAP4 SWAP3 POP POP POP JUMP JUMPDEST PUSH1 0x0 DUP2 SWAP1 POP SWAP2 SWAP1 POP JUMP JUMPDEST PUSH1 0x0 PUSH3 0x555 PUSH3 0x54F PUSH3 0x549 DUP5 PUSH3 0x19F JUMP JUMPDEST PUSH3 0x52A JUMP JUMPDEST PUSH3 0x19F JUMP JUMPDEST SWAP1 POP SWAP2 SWAP1 POP JUMP JUMPDEST PUSH1 0x0 DUP2 SWAP1 POP SWAP2 SWAP1 POP JUMP JUMPDEST PUSH3 0x571 DUP4 PUSH3 0x534 JUMP JUMPDEST PUSH3 0x589 PUSH3 0x580 DUP3 PUSH3 0x55C JUMP JUMPDEST DUP5 DUP5 SLOAD PUSH3 0x4D4 JUMP JUMPDEST DUP3 SSTORE POP POP POP POP JUMP JUMPDEST PUSH1 0x0 SWAP1 JUMP JUMPDEST PUSH3 0x5A0 PUSH3 0x591 JUMP JUMPDEST PUSH3 0x5AD DUP2 DUP5 DUP5 PUSH3 0x566 JUMP JUMPDEST POP POP POP JUMP JUMPDEST JUMPDEST DUP2 DUP2 LT ISZERO PUSH3 0x5D5 JUMPI PUSH3 0x5C9 PUSH1 0x0 DUP3 PUSH3 0x596 JUMP JUMPDEST PUSH1 0x1 DUP2 ADD SWAP1 POP PUSH3 0x5B3 JUMP JUMPDEST POP POP JUMP JUMPDEST PUSH1 0x1F DUP3 GT ISZERO PUSH3 0x624 JUMPI PUSH3 0x5EE DUP2 PUSH3 0x4A2 JUMP JUMPDEST PUSH3 0x5F9 DUP5 PUSH3 0x4B7 JUMP JUMPDEST DUP2 ADD PUSH1 0x20 DUP6 LT ISZERO PUSH3 0x609 JUMPI DUP2 SWAP1 POP JUMPDEST PUSH3 0x621 PUSH3 0x618 DUP6 PUSH3 0x4B7 JUMP JUMPDEST DUP4 ADD DUP3 PUSH3 0x5B2 JUMP JUMPDEST POP POP JUMPDEST POP POP POP JUMP JUMPDEST PUSH1 0x0 DUP3 DUP3 SHR SWAP1 POP SWAP3 SWAP2 POP POP JUMP JUMPDEST PUSH1 0x0 PUSH3 0x649 PUSH1 0x0 NOT DUP5 PUSH1 0x8 MUL PUSH3 0x629 JUMP JUMPDEST NOT DUP1 DUP4 AND SWAP2 POP POP SWAP3 SWAP2 POP POP JUMP JUMPDEST PUSH1 0x0 PUSH3 0x664 DUP4 DUP4 PUSH3 0x636 JUMP JUMPDEST SWAP2 POP DUP3 PUSH1 0x2 MUL DUP3 OR SWAP1 POP SWAP3 SWAP2 POP POP JUMP JUMPDEST PUSH3 0x67F DUP3 PUSH3 0x433 JUMP JUMPDEST PUSH8 0xFFFFFFFFFFFFFFFF DUP2 GT ISZERO PUSH3 0x69B JUMPI PUSH3 0x69A PUSH3 0x1F5 JUMP JUMPDEST JUMPDEST PUSH3 0x6A7 DUP3 SLOAD PUSH3 0x46D JUMP JUMPDEST PUSH3 0x6B4 DUP3 DUP3 DUP6 PUSH3 0x5D9 JUMP JUMPDEST PUSH1 0x0 PUSH1 0x20 SWAP1 POP PUSH1 0x1F DUP4 GT PUSH1 0x1 DUP2 EQ PUSH3 0x6EC JUMPI PUSH1 0x0 DUP5 ISZERO PUSH3 0x6D7 JUMPI DUP3 DUP8 ADD MLOAD SWAP1 POP JUMPDEST PUSH3 0x6E3 DUP6 DUP3 PUSH3 0x656 JUMP JUMPDEST DUP7 SSTORE POP PUSH3 0x753 JUMP JUMPDEST PUSH1 0x1F NOT DUP5 AND PUSH3 0x6FC DUP7 PUSH3 0x4A2 JUMP JUMPDEST PUSH1 0x0 JUMPDEST DUP3 DUP2 LT ISZERO PUSH3 0x726 JUMPI DUP5 DUP10 ADD MLOAD DUP3 SSTORE PUSH1 0x1 DUP3 ADD SWAP2 POP PUSH1 0x20 DUP6 ADD SWAP5 POP PUSH1 0x20 DUP2 ADD SWAP1 POP PUSH3 0x6FF JUMP JUMPDEST DUP7 DUP4 LT ISZERO PUSH3 0x746 JUMPI DUP5 DUP10 ADD MLOAD PUSH3 0x742 PUSH1 0x1F DUP10 AND DUP3 PUSH3 0x636 JUMP JUMPDEST DUP4 SSTORE POP JUMPDEST PUSH1 0x1 PUSH1 0x2 DUP9 MUL ADD DUP9 SSTORE POP POP POP JUMPDEST POP POP POP POP POP POP JUMP JUMPDEST PUSH2 0x24F9 DUP1 PUSH3 0x76B PUSH1 0x0 CODECOPY PUSH1 0x0 RETURN INVALID PUSH1 0x80 PUSH1 0x40 MSTORE PUSH1 0x4 CALLDATASIZE LT PUSH2 0x11F JUMPI PUSH1 0x0 CALLDATALOAD PUSH1 0xE0 SHR DUP1 PUSH4 0x937E09B1 GT PUSH2 0xA0 JUMPI DUP1 PUSH4 0xC19D93FB GT PUSH2 0x64 JUMPI DUP1 PUSH4 0xC19D93FB EQ PUSH2 0x3BC JUMPI DUP1 PUSH4 0xC3E20C9F EQ PUSH2 0x3E7 JUMPI DUP1 PUSH4 0xC59EE1DC EQ PUSH2 0x412 JUMPI DUP1 PUSH4 0xD5CEF133 EQ PUSH2 0x43D JUMPI DUP1 PUSH4 0xFF3A9C7E EQ PUSH2 0x468 JUMPI PUSH2 0x11F JUMP JUMPDEST DUP1 PUSH4 0x937E09B1 EQ PUSH2 0x2D1 JUMPI DUP1 PUSH4 0x992A7DFB EQ PUSH2 0x2FC JUMPI DUP1 PUSH4 0xA46752AE EQ PUSH2 0x33D JUMPI DUP1 PUSH4 0xB40141BF EQ PUSH2 0x366 JUMPI DUP1 PUSH4 0xB82C86D6 EQ PUSH2 0x391 JUMPI PUSH2 0x11F JUMP JUMPDEST DUP1 PUSH4 0x4C4CEA5A GT PUSH2 0xE7 JUMPI DUP1 PUSH4 0x4C4CEA5A EQ PUSH2 0x20D JUMPI DUP1 PUSH4 0x4E695A37 EQ PUSH2 0x238 JUMPI DUP1 PUSH4 0x6F9FB98A EQ PUSH2 0x261 JUMPI DUP1 PUSH4 0x73E888FD EQ PUSH2 0x28C JUMPI DUP1 PUSH4 0x752E19F9 EQ PUSH2 0x2A8 JUMPI PUSH2 0x11F JUMP JUMPDEST DUP1 PUSH4 0x2D05D3F EQ PUSH2 0x124 JUMPI DUP1 PUSH4 0x3C29D58 EQ PUSH2 0x14F JUMPI DUP1 PUSH4 0xA771370 EQ PUSH2 0x17A JUMPI DUP1 PUSH4 0x24274EE9 EQ PUSH2 0x1B7 JUMPI DUP1 PUSH4 0x29DCB0CF EQ PUSH2 0x1E2 JUMPI JUMPDEST PUSH1 0x0 DUP1 REVERT JUMPDEST CALLVALUE DUP1 ISZERO PUSH2 0x130 JUMPI PUSH1 0x0 DUP1 REVERT JUMPDEST POP PUSH2 0x139 PUSH2 0x49C JUMP JUMPDEST PUSH1 0x40 MLOAD PUSH2 0x146 SWAP2 SWAP1 PUSH2 0x14D4 JUMP JUMPDEST PUSH1 0x40 MLOAD DUP1 SWAP2 SUB SWAP1 RETURN JUMPDEST CALLVALUE DUP1 ISZERO PUSH2 0x15B JUMPI PUSH1 0x0 DUP1 REVERT JUMPDEST POP PUSH2 0x164 PUSH2 0x4C0 JUMP JUMPDEST PUSH1 0x40 MLOAD PUSH2 0x171 SWAP2 SWAP1 PUSH2 0x157F JUMP JUMPDEST PUSH1 0x40 MLOAD DUP1 SWAP2 SUB SWAP1 RETURN JUMPDEST CALLVALUE DUP1 ISZERO PUSH2 0x186 JUMPI PUSH1 0x0 DUP1 REVERT JUMPDEST POP PUSH2 0x1A1 PUSH1 0x4 DUP1 CALLDATASIZE SUB DUP2 ADD SWAP1 PUSH2 0x19C SWAP2 SWAP1 PUSH2 0x15F3 JUMP JUMPDEST PUSH2 0x54E JUMP JUMPDEST PUSH1 0x40 MLOAD PUSH2 0x1AE SWAP2 SWAP1 PUSH2 0x1639 JUMP JUMPDEST PUSH1 0x40 MLOAD DUP1 SWAP2 SUB SWAP1 RETURN JUMPDEST CALLVALUE DUP1 ISZERO PUSH2 0x1C3 JUMPI PUSH1 0x0 DUP1 REVERT JUMPDEST POP PUSH2 0x1CC PUSH2 0x566 JUMP JUMPDEST PUSH1 0x40 MLOAD PUSH2 0x1D9 SWAP2 SWAP1 PUSH2 0x1639 JUMP JUMPDEST PUSH1 0x40 MLOAD DUP1 SWAP2 SUB SWAP1 RETURN JUMPDEST CALLVALUE DUP1 ISZERO PUSH2 0x1EE JUMPI PUSH1 0x0 DUP1 REVERT JUMPDEST POP PUSH2 0x1F7 PUSH2 0x56C JUMP JUMPDEST PUSH1 0x40 MLOAD PUSH2 0x204 SWAP2 SWAP1 PUSH2 0x1639 JUMP JUMPDEST PUSH1 0x40 MLOAD DUP1 SWAP2 SUB SWAP1 RETURN JUMPDEST CALLVALUE DUP1 ISZERO PUSH2 0x219 JUMPI PUSH1 0x0 DUP1 REVERT JUMPDEST POP PUSH2 0x222 PUSH2 0x572 JUMP JUMPDEST PUSH1 0x40 MLOAD PUSH2 0x22F SWAP2 SWAP1 PUSH2 0x1639 JUMP JUMPDEST PUSH1 0x40 MLOAD DUP1 SWAP2 SUB SWAP1 RETURN JUMPDEST CALLVALUE DUP1 ISZERO PUSH2 0x244 JUMPI PUSH1 0x0 DUP1 REVERT JUMPDEST POP PUSH2 0x25F PUSH1 0x4 DUP1 CALLDATASIZE SUB DUP2 ADD SWAP1 PUSH2 0x25A SWAP2 SWAP1 PUSH2 0x1680 JUMP JUMPDEST PUSH2 0x578 JUMP JUMPDEST STOP JUMPDEST CALLVALUE DUP1 ISZERO PUSH2 0x26D JUMPI PUSH1 0x0 DUP1 REVERT JUMPDEST POP PUSH2 0x276 PUSH2 0x75D JUMP JUMPDEST PUSH1 0x40 MLOAD PUSH2 0x283 SWAP2 SWAP1 PUSH2 0x1639 JUMP JUMPDEST PUSH1 0x40 MLOAD DUP1 SWAP2 SUB SWAP1 RETURN JUMPDEST PUSH2 0x2A6 PUSH1 0x4 DUP1 CALLDATASIZE SUB DUP2 ADD SWAP1 PUSH2 0x2A1 SWAP2 SWAP1 PUSH2 0x15F3 JUMP JUMPDEST PUSH2 0x765 JUMP JUMPDEST STOP JUMPDEST CALLVALUE DUP1 ISZERO PUSH2 0x2B4 JUMPI PUSH1 0x0 DUP1 REVERT JUMPDEST POP PUSH2 0x2CF PUSH1 0x4 DUP1 CALLDATASIZE SUB DUP2 ADD SWAP1 PUSH2 0x2CA SWAP2 SWAP1 PUSH2 0x1680 JUMP JUMPDEST PUSH2 0x97D JUMP JUMPDEST STOP JUMPDEST CALLVALUE DUP1 ISZERO PUSH2 0x2DD JUMPI PUSH1 0x0 DUP1 REVERT JUMPDEST POP PUSH2 0x2E6 PUSH2 0xC8C JUMP JUMPDEST PUSH1 0x40 MLOAD PUSH2 0x2F3 SWAP2 SWAP1 PUSH2 0x1639 JUMP JUMPDEST PUSH1 0x40 MLOAD DUP1 SWAP2 SUB SWAP1 RETURN JUMPDEST CALLVALUE DUP1 ISZERO PUSH2 0x308 JUMPI PUSH1 0x0 DUP1 REVERT JUMPDEST POP PUSH2 0x323 PUSH1 0x4 DUP1 CALLDATASIZE SUB DUP2 ADD SWAP1 PUSH2 0x31E SWAP2 SWAP1 PUSH2 0x1680 JUMP JUMPDEST PUSH2 0xC92 JUMP JUMPDEST PUSH1 0x40 MLOAD PUSH2 0x334 SWAP6 SWAP5 SWAP4 SWAP3 SWAP2 SWAP1 PUSH2 0x16C8 JUMP JUMPDEST PUSH1 0x40 MLOAD DUP1 SWAP2 SUB SWAP1 RETURN JUMPDEST CALLVALUE DUP1 ISZERO PUSH2 0x349 JUMPI PUSH1 0x0 DUP1 REVERT JUMPDEST POP PUSH2 0x364 PUSH1 0x4 DUP1 CALLDATASIZE SUB DUP2 ADD SWAP1 PUSH2 0x35F SWAP2 SWAP1 PUSH2 0x1883 JUMP JUMPDEST PUSH2 0xD7D JUMP JUMPDEST STOP JUMPDEST CALLVALUE DUP1 ISZERO PUSH2 0x372 JUMPI PUSH1 0x0 DUP1 REVERT JUMPDEST POP PUSH2 0x37B PUSH2 0xFC7 JUMP JUMPDEST PUSH1 0x40 MLOAD PUSH2 0x388 SWAP2 SWAP1 PUSH2 0x1639 JUMP JUMPDEST PUSH1 0x40 MLOAD DUP1 SWAP2 SUB SWAP1 RETURN JUMPDEST CALLVALUE DUP1 ISZERO PUSH2 0x39D JUMPI PUSH1 0x0 DUP1 REVERT JUMPDEST POP PUSH2 0x3A6 PUSH2 0xFCD JUMP JUMPDEST PUSH1 0x40 MLOAD PUSH2 0x3B3 SWAP2 SWAP1 PUSH2 0x1639 JUMP JUMPDEST PUSH1 0x40 MLOAD DUP1 SWAP2 SUB SWAP1 RETURN JUMPDEST CALLVALUE DUP1 ISZERO PUSH2 0x3C8 JUMPI PUSH1 0x0 DUP1 REVERT JUMPDEST POP PUSH2 0x3D1 PUSH2 0xFD3 JUMP JUMPDEST PUSH1 0x40 MLOAD PUSH2 0x3DE SWAP2 SWAP1 PUSH2 0x1969 JUMP JUMPDEST PUSH1 0x40 MLOAD DUP1 SWAP2 SUB SWAP1 RETURN JUMPDEST CALLVALUE DUP1 ISZERO PUSH2 0x3F3 JUMPI PUSH1 0x0 DUP1 REVERT JUMPDEST POP PUSH2 0x3FC PUSH2 0xFE6 JUMP JUMPDEST PUSH1 0x40 MLOAD PUSH2 0x409 SWAP2 SWAP1 PUSH2 0x157F JUMP JUMPDEST PUSH1 0x40 MLOAD DUP1 SWAP2 SUB SWAP1 RETURN JUMPDEST CALLVALUE DUP1 ISZERO PUSH2 0x41E JUMPI PUSH1 0x0 DUP1 REVERT JUMPDEST POP PUSH2 0x427 PUSH2 0x1074 JUMP JUMPDEST PUSH1 0x40 MLOAD PUSH2 0x434 SWAP2 SWAP1 PUSH2 0x1639 JUMP JUMPDEST PUSH1 0x40 MLOAD DUP1 SWAP2 SUB SWAP1 RETURN JUMPDEST CALLVALUE DUP1 ISZERO PUSH2 0x449 JUMPI PUSH1 0x0 DUP1 REVERT JUMPDEST POP PUSH2 0x452 PUSH2 0x107A JUMP JUMPDEST PUSH1 0x40 MLOAD PUSH2 0x45F SWAP2 SWAP1 PUSH2 0x1984 JUMP JUMPDEST PUSH1 0x40 MLOAD DUP1 SWAP2 SUB SWAP1 RETURN JUMPDEST CALLVALUE DUP1 ISZERO PUSH2 0x474 JUMPI PUSH1 0x0 DUP1 REVERT JUMPDEST POP PUSH2 0x47D PUSH2 0x1292 JUMP JUMPDEST PUSH1 0x40 MLOAD PUSH2 0x493 SWAP11 SWAP10 SWAP9 SWAP8 SWAP7 SWAP6 SWAP5 SWAP4 SWAP3 SWAP2 SWAP1 PUSH2 0x199F JUMP JUMPDEST PUSH1 0x40 MLOAD DUP1 SWAP2 SUB SWAP1 RETURN JUMPDEST PUSH1 0x0 DUP1 SLOAD SWAP1 PUSH2 0x100 EXP SWAP1 DIV PUSH20 0xFFFFFFFFFFFFFFFFFFFFFFFFFFFFFFFFFFFFFFFF AND DUP2 JUMP JUMPDEST PUSH1 0x8 DUP1 SLOAD PUSH2 0x4CD SWAP1 PUSH2 0x1A78 JUMP JUMPDEST DUP1 PUSH1 0x1F ADD PUSH1 0x20 DUP1 SWAP2 DIV MUL PUSH1 0x20 ADD PUSH1 0x40 MLOAD SWAP1 DUP2 ADD PUSH1 0x40 MSTORE DUP1 SWAP3 SWAP2 SWAP1 DUP2 DUP2 MSTORE PUSH1 0x20 ADD DUP3 DUP1 SLOAD PUSH2 0x4F9 SWAP1 PUSH2 0x1A78 JUMP JUMPDEST DUP1 ISZERO PUSH2 0x546 JUMPI DUP1 PUSH1 0x1F LT PUSH2 0x51B JUMPI PUSH2 0x100 DUP1 DUP4 SLOAD DIV MUL DUP4 MSTORE SWAP2 PUSH1 0x20 ADD SWAP2 PUSH2 0x546 JUMP JUMPDEST DUP3 ADD SWAP2 SWAP1 PUSH1 0x0 MSTORE PUSH1 0x20 PUSH1 0x0 KECCAK256 SWAP1 JUMPDEST DUP2 SLOAD DUP2 MSTORE SWAP1 PUSH1 0x1 ADD SWAP1 PUSH1 0x20 ADD DUP1 DUP4 GT PUSH2 0x529 JUMPI DUP3 SWAP1 SUB PUSH1 0x1F AND DUP3 ADD SWAP2 JUMPDEST POP POP POP POP POP DUP2 JUMP JUMPDEST PUSH1 0xA PUSH1 0x20 MSTORE DUP1 PUSH1 0x0 MSTORE PUSH1 0x40 PUSH1 0x0 KECCAK256 PUSH1 0x0 SWAP2 POP SWAP1 POP SLOAD DUP2 JUMP JUMPDEST PUSH1 0x6 SLOAD DUP2 JUMP JUMPDEST PUSH1 0x2 SLOAD DUP2 JUMP JUMPDEST PUSH1 0x4 SLOAD DUP2 JUMP JUMPDEST PUSH1 0x0 PUSH1 0xA PUSH1 0x0 CALLER PUSH20 0xFFFFFFFFFFFFFFFFFFFFFFFFFFFFFFFFFFFFFFFF AND PUSH20 0xFFFFFFFFFFFFFFFFFFFFFFFFFFFFFFFFFFFFFFFF AND DUP2 MSTORE PUSH1 0x20 ADD SWAP1 DUP2 MSTORE PUSH1 0x20 ADD PUSH1 0x0 KECCAK256 SLOAD GT PUSH2 0x5FA JUMPI PUSH1 0x40 MLOAD PUSH32 0x8C379A000000000000000000000000000000000000000000000000000000000 DUP2 MSTORE PUSH1 0x4 ADD PUSH2 0x5F1 SWAP1 PUSH2 0x1AF5 JUMP JUMPDEST PUSH1 0x40 MLOAD DUP1 SWAP2 SUB SWAP1 REVERT JUMPDEST PUSH1 0x0 PUSH1 0xB PUSH1 0x0 DUP4 DUP2 MSTORE PUSH1 0x20 ADD SWAP1 DUP2 MSTORE PUSH1 0x20 ADD PUSH1 0x0 KECCAK256 SWAP1 POP PUSH1 0x0 ISZERO ISZERO DUP2 PUSH1 0x3 ADD PUSH1 0x0 CALLER PUSH20 0xFFFFFFFFFFFFFFFFFFFFFFFFFFFFFFFFFFFFFFFF AND PUSH20 0xFFFFFFFFFFFFFFFFFFFFFFFFFFFFFFFFFFFFFFFF AND DUP2 MSTORE PUSH1 0x20 ADD SWAP1 DUP2 MSTORE PUSH1 0x20 ADD PUSH1 0x0 KECCAK256 PUSH1 0x0 SWAP1 SLOAD SWAP1 PUSH2 0x100 EXP SWAP1 DIV PUSH1 0xFF AND ISZERO ISZERO EQ PUSH2 0x6A6 JUMPI PUSH1 0x40 MLOAD PUSH32 0x8C379A000000000000000000000000000000000000000000000000000000000 DUP2 MSTORE PUSH1 0x4 ADD PUSH2 0x69D SWAP1 PUSH2 0x1B61 JUMP JUMPDEST PUSH1 0x40 MLOAD DUP1 SWAP2 SUB SWAP1 REVERT JUMPDEST PUSH1 0x1 DUP2 PUSH1 0x3 ADD PUSH1 0x0 CALLER PUSH20 0xFFFFFFFFFFFFFFFFFFFFFFFFFFFFFFFFFFFFFFFF AND PUSH20 0xFFFFFFFFFFFFFFFFFFFFFFFFFFFFFFFFFFFFFFFF AND DUP2 MSTORE PUSH1 0x20 ADD SWAP1 DUP2 MSTORE PUSH1 0x20 ADD PUSH1 0x0 KECCAK256 PUSH1 0x0 PUSH2 0x100 EXP DUP2 SLOAD DUP2 PUSH1 0xFF MUL NOT AND SWAP1 DUP4 ISZERO ISZERO MUL OR SWAP1 SSTORE POP PUSH1 0x1 DUP2 PUSH1 0x2 ADD PUSH1 0x0 DUP3 DUP3 SLOAD PUSH2 0x715 SWAP2 SWAP1 PUSH2 0x1BB0 JUMP JUMPDEST SWAP3 POP POP DUP2 SWAP1 SSTORE POP PUSH32 0xA2925E4595BF873FA82C22A1A89809777347023BF2B502D32710157A5EB8199C CALLER DUP3 PUSH1 0x2 ADD SLOAD PUSH1 0x40 MLOAD PUSH2 0x751 SWAP3 SWAP2 SWAP1 PUSH2 0x1BF3 JUMP JUMPDEST PUSH1 0x40 MLOAD DUP1 SWAP2 SUB SWAP1 LOG1 POP POP JUMP JUMPDEST PUSH1 0x0 SELFBALANCE SWAP1 POP SWAP1 JUMP JUMPDEST PUSH1 0x0 DUP1 PUSH1 0x2 DUP2 GT ISZERO PUSH2 0x77A JUMPI PUSH2 0x779 PUSH2 0x18F2 JUMP JUMPDEST JUMPDEST PUSH1 0x9 PUSH1 0x0 SWAP1 SLOAD SWAP1 PUSH2 0x100 EXP SWAP1 DIV PUSH1 0xFF AND PUSH1 0x2 DUP2 GT ISZERO PUSH2 0x79C JUMPI PUSH2 0x79B PUSH2 0x18F2 JUMP JUMPDEST JUMPDEST EQ PUSH2 0x7DC JUMPI PUSH1 0x40 MLOAD PUSH32 0x8C379A000000000000000000000000000000000000000000000000000000000 DUP2 MSTORE PUSH1 0x4 ADD PUSH2 0x7D3 SWAP1 PUSH2 0x1C68 JUMP JUMPDEST PUSH1 0x40 MLOAD DUP1 SWAP2 SUB SWAP1 REVERT JUMPDEST PUSH1 0x2 SLOAD TIMESTAMP LT PUSH2 0x820 JUMPI PUSH1 0x40 MLOAD PUSH32 0x8C379A000000000000000000000000000000000000000000000000000000000 DUP2 MSTORE PUSH1 0x4 ADD PUSH2 0x817 SWAP1 PUSH2 0x1CD4 JUMP JUMPDEST PUSH1 0x40 MLOAD DUP1 SWAP2 SUB SWAP1 REVERT JUMPDEST PUSH1 0x1 SLOAD CALLVALUE LT ISZERO PUSH2 0x865 JUMPI PUSH1 0x40 MLOAD PUSH32 0x8C379A000000000000000000000000000000000000000000000000000000000 DUP2 MSTORE PUSH1 0x4 ADD PUSH2 0x85C SWAP1 PUSH2 0x1D40 JUMP JUMPDEST PUSH1 0x40 MLOAD DUP1 SWAP2 SUB SWAP1 REVERT JUMPDEST PUSH1 0x0 PUSH1 0xA PUSH1 0x0 DUP5 PUSH20 0xFFFFFFFFFFFFFFFFFFFFFFFFFFFFFFFFFFFFFFFF AND PUSH20 0xFFFFFFFFFFFFFFFFFFFFFFFFFFFFFFFFFFFFFFFF AND DUP2 MSTORE PUSH1 0x20 ADD SWAP1 DUP2 MSTORE PUSH1 0x20 ADD PUSH1 0x0 KECCAK256 SLOAD SUB PUSH2 0x8C5 JUMPI PUSH1 0x6 PUSH1 0x0 DUP2 SLOAD DUP1 SWAP3 SWAP2 SWAP1 PUSH2 0x8BF SWAP1 PUSH2 0x1D60 JUMP JUMPDEST SWAP2 SWAP1 POP SSTORE POP JUMPDEST CALLVALUE PUSH1 0xA PUSH1 0x0 DUP5 PUSH20 0xFFFFFFFFFFFFFFFFFFFFFFFFFFFFFFFFFFFFFFFF AND PUSH20 0xFFFFFFFFFFFFFFFFFFFFFFFFFFFFFFFFFFFFFFFF AND DUP2 MSTORE PUSH1 0x20 ADD SWAP1 DUP2 MSTORE PUSH1 0x20 ADD PUSH1 0x0 KECCAK256 PUSH1 0x0 DUP3 DUP3 SLOAD PUSH2 0x914 SWAP2 SWAP1 PUSH2 0x1BB0 JUMP JUMPDEST SWAP3 POP POP DUP2 SWAP1 SSTORE POP CALLVALUE PUSH1 0x5 PUSH1 0x0 DUP3 DUP3 SLOAD PUSH2 0x92D SWAP2 SWAP1 PUSH2 0x1BB0 JUMP JUMPDEST SWAP3 POP POP DUP2 SWAP1 SSTORE POP PUSH32 0x5CDC4AB8D637538EAD6CC1904D4160343656C8C82BD266635CFD31AC008FFFE0 DUP3 CALLVALUE PUSH1 0x5 SLOAD PUSH1 0x40 MLOAD PUSH2 0x969 SWAP4 SWAP3 SWAP2 SWAP1 PUSH2 0x1DA8 JUMP JUMPDEST PUSH1 0x40 MLOAD DUP1 SWAP2 SUB SWAP1 LOG1 PUSH2 0x979 PUSH2 0x1418 JUMP JUMPDEST POP POP JUMP JUMPDEST PUSH1 0x0 DUP1 SLOAD SWAP1 PUSH2 0x100 EXP SWAP1 DIV PUSH20 0xFFFFFFFFFFFFFFFFFFFFFFFFFFFFFFFFFFFFFFFF AND PUSH20 0xFFFFFFFFFFFFFFFFFFFFFFFFFFFFFFFFFFFFFFFF AND CALLER PUSH20 0xFFFFFFFFFFFFFFFFFFFFFFFFFFFFFFFFFFFFFFFF AND EQ PUSH2 0xA0B JUMPI PUSH1 0x40 MLOAD PUSH32 0x8C379A000000000000000000000000000000000000000000000000000000000 DUP2 MSTORE PUSH1 0x4 ADD PUSH2 0xA02 SWAP1 PUSH2 0x1E51 JUMP JUMPDEST PUSH1 0x40 MLOAD DUP1 SWAP2 SUB SWAP1 REVERT JUMPDEST PUSH1 0x2 DUP1 PUSH1 0x2 DUP2 GT ISZERO PUSH2 0xA20 JUMPI PUSH2 0xA1F PUSH2 0x18F2 JUMP JUMPDEST JUMPDEST PUSH1 0x9 PUSH1 0x0 SWAP1 SLOAD SWAP1 PUSH2 0x100 EXP SWAP1 DIV PUSH1 0xFF AND PUSH1 0x2 DUP2 GT ISZERO PUSH2 0xA42 JUMPI PUSH2 0xA41 PUSH2 0x18F2 JUMP JUMPDEST JUMPDEST EQ PUSH2 0xA82 JUMPI PUSH1 0x40 MLOAD PUSH32 0x8C379A000000000000000000000000000000000000000000000000000000000 DUP2 MSTORE PUSH1 0x4 ADD PUSH2 0xA79 SWAP1 PUSH2 0x1C68 JUMP JUMPDEST PUSH1 0x40 MLOAD DUP1 SWAP2 SUB SWAP1 REVERT JUMPDEST PUSH1 0x2 SLOAD TIMESTAMP LT PUSH2 0xAC6 JUMPI PUSH1 0x40 MLOAD PUSH32 0x8C379A000000000000000000000000000000000000000000000000000000000 DUP2 MSTORE PUSH1 0x4 ADD PUSH2 0xABD SWAP1 PUSH2 0x1CD4 JUMP JUMPDEST PUSH1 0x40 MLOAD DUP1 SWAP2 SUB SWAP1 REVERT JUMPDEST PUSH1 0x0 PUSH1 0xB PUSH1 0x0 DUP5 DUP2 MSTORE PUSH1 0x20 ADD SWAP1 DUP2 MSTORE PUSH1 0x20 ADD PUSH1 0x0 KECCAK256 SWAP1 POP PUSH1 0x0 ISZERO ISZERO DUP2 PUSH1 0x4 ADD PUSH1 0x0 SWAP1 SLOAD SWAP1 PUSH2 0x100 EXP SWAP1 DIV PUSH1 0xFF AND ISZERO ISZERO EQ PUSH2 0xB35 JUMPI PUSH1 0x40 MLOAD PUSH32 0x8C379A000000000000000000000000000000000000000000000000000000000 DUP2 MSTORE PUSH1 0x4 ADD PUSH2 0xB2C SWAP1 PUSH2 0x1EBD JUMP JUMPDEST PUSH1 0x40 MLOAD DUP1 SWAP2 SUB SWAP1 REVERT JUMPDEST PUSH1 0x2 PUSH1 0x6 SLOAD PUSH2 0xB44 SWAP2 SWAP1 PUSH2 0x1F0C JUMP JUMPDEST DUP2 PUSH1 0x2 ADD SLOAD LT ISZERO PUSH2 0xB8A JUMPI PUSH1 0x40 MLOAD PUSH32 0x8C379A000000000000000000000000000000000000000000000000000000000 DUP2 MSTORE PUSH1 0x4 ADD PUSH2 0xB81 SWAP1 PUSH2 0x1FAF JUMP JUMPDEST PUSH1 0x40 MLOAD DUP1 SWAP2 SUB SWAP1 REVERT JUMPDEST DUP1 PUSH1 0x4 ADD PUSH1 0x1 SWAP1 SLOAD SWAP1 PUSH2 0x100 EXP SWAP1 DIV PUSH20 0xFFFFFFFFFFFFFFFFFFFFFFFFFFFFFFFFFFFFFFFF AND PUSH20 0xFFFFFFFFFFFFFFFFFFFFFFFFFFFFFFFFFFFFFFFF AND PUSH2 0x8FC DUP3 PUSH1 0x1 ADD SLOAD SWAP1 DUP2 ISZERO MUL SWAP1 PUSH1 0x40 MLOAD PUSH1 0x0 PUSH1 0x40 MLOAD DUP1 DUP4 SUB DUP2 DUP6 DUP9 DUP9 CALL SWAP4 POP POP POP POP ISZERO DUP1 ISZERO PUSH2 0xBF8 JUMPI RETURNDATASIZE PUSH1 0x0 DUP1 RETURNDATACOPY RETURNDATASIZE PUSH1 0x0 REVERT JUMPDEST POP PUSH1 0x1 DUP2 PUSH1 0x4 ADD PUSH1 0x0 PUSH2 0x100 EXP DUP2 SLOAD DUP2 PUSH1 0xFF MUL NOT AND SWAP1 DUP4 ISZERO ISZERO MUL OR SWAP1 SSTORE POP PUSH32 0x2AF8D60B878C5E8DE57C8FF96E03C6CFAB6DE26B47E989757345CC1DCEAAC998 DUP4 DUP3 PUSH1 0x0 ADD DUP4 PUSH1 0x1 ADD SLOAD DUP5 PUSH1 0x2 ADD SLOAD PUSH1 0x1 DUP7 PUSH1 0x4 ADD PUSH1 0x1 SWAP1 SLOAD SWAP1 PUSH2 0x100 EXP SWAP1 DIV PUSH20 0xFFFFFFFFFFFFFFFFFFFFFFFFFFFFFFFFFFFFFFFF AND PUSH1 0x40 MLOAD PUSH2 0xC7F SWAP7 SWAP6 SWAP5 SWAP4 SWAP3 SWAP2 SWAP1 PUSH2 0x20C7 JUMP JUMPDEST PUSH1 0x40 MLOAD DUP1 SWAP2 SUB SWAP1 LOG1 POP POP POP JUMP JUMPDEST PUSH1 0x1 SLOAD DUP2 JUMP JUMPDEST PUSH1 0xB PUSH1 0x20 MSTORE DUP1 PUSH1 0x0 MSTORE PUSH1 0x40 PUSH1 0x0 KECCAK256 PUSH1 0x0 SWAP2 POP SWAP1 POP DUP1 PUSH1 0x0 ADD DUP1 SLOAD PUSH2 0xCB5 SWAP1 PUSH2 0x1A78 JUMP JUMPDEST DUP1 PUSH1 0x1F ADD PUSH1 0x20 DUP1 SWAP2 DIV MUL PUSH1 0x20 ADD PUSH1 0x40 MLOAD SWAP1 DUP2 ADD PUSH1 0x40 MSTORE DUP1 SWAP3 SWAP2 SWAP1 DUP2 DUP2 MSTORE PUSH1 0x20 ADD DUP3 DUP1 SLOAD PUSH2 0xCE1 SWAP1 PUSH2 0x1A78 JUMP JUMPDEST DUP1 ISZERO PUSH2 0xD2E JUMPI DUP1 PUSH1 0x1F LT PUSH2 0xD03 JUMPI PUSH2 0x100 DUP1 DUP4 SLOAD DIV MUL DUP4 MSTORE SWAP2 PUSH1 0x20 ADD SWAP2 PUSH2 0xD2E JUMP JUMPDEST DUP3 ADD SWAP2 SWAP1 PUSH1 0x0 MSTORE PUSH1 0x20 PUSH1 0x0 KECCAK256 SWAP1 JUMPDEST DUP2 SLOAD DUP2 MSTORE SWAP1 PUSH1 0x1 ADD SWAP1 PUSH1 0x20 ADD DUP1 DUP4 GT PUSH2 0xD11 JUMPI DUP3 SWAP1 SUB PUSH1 0x1F AND DUP3 ADD SWAP2 JUMPDEST POP POP POP POP POP SWAP1 DUP1 PUSH1 0x1 ADD SLOAD SWAP1 DUP1 PUSH1 0x2 ADD SLOAD SWAP1 DUP1 PUSH1 0x4 ADD PUSH1 0x0 SWAP1 SLOAD SWAP1 PUSH2 0x100 EXP SWAP1 DIV PUSH1 0xFF AND SWAP1 DUP1 PUSH1 0x4 ADD PUSH1 0x1 SWAP1 SLOAD SWAP1 PUSH2 0x100 EXP SWAP1 DIV PUSH20 0xFFFFFFFFFFFFFFFFFFFFFFFFFFFFFFFFFFFFFFFF AND SWAP1 POP DUP6 JUMP JUMPDEST PUSH1 0x0 DUP1 SLOAD SWAP1 PUSH2 0x100 EXP SWAP1 DIV PUSH20 0xFFFFFFFFFFFFFFFFFFFFFFFFFFFFFFFFFFFFFFFF AND PUSH20 0xFFFFFFFFFFFFFFFFFFFFFFFFFFFFFFFFFFFFFFFF AND CALLER PUSH20 0xFFFFFFFFFFFFFFFFFFFFFFFFFFFFFFFFFFFFFFFF AND EQ PUSH2 0xE0B JUMPI PUSH1 0x40 MLOAD PUSH32 0x8C379A000000000000000000000000000000000000000000000000000000000 DUP2 MSTORE PUSH1 0x4 ADD PUSH2 0xE02 SWAP1 PUSH2 0x1E51 JUMP JUMPDEST PUSH1 0x40 MLOAD DUP1 SWAP2 SUB SWAP1 REVERT JUMPDEST PUSH1 0x2 DUP1 PUSH1 0x2 DUP2 GT ISZERO PUSH2 0xE20 JUMPI PUSH2 0xE1F PUSH2 0x18F2 JUMP JUMPDEST JUMPDEST PUSH1 0x9 PUSH1 0x0 SWAP1 SLOAD SWAP1 PUSH2 0x100 EXP SWAP1 DIV PUSH1 0xFF AND PUSH1 0x2 DUP2 GT ISZERO PUSH2 0xE42 JUMPI PUSH2 0xE41 PUSH2 0x18F2 JUMP JUMPDEST JUMPDEST EQ PUSH2 0xE82 JUMPI PUSH1 0x40 MLOAD PUSH32 0x8C379A000000000000000000000000000000000000000000000000000000000 DUP2 MSTORE PUSH1 0x4 ADD PUSH2 0xE79 SWAP1 PUSH2 0x1C68 JUMP JUMPDEST PUSH1 0x40 MLOAD DUP1 SWAP2 SUB SWAP1 REVERT JUMPDEST PUSH1 0x2 SLOAD TIMESTAMP LT PUSH2 0xEC6 JUMPI PUSH1 0x40 MLOAD PUSH32 0x8C379A000000000000000000000000000000000000000000000000000000000 DUP2 MSTORE PUSH1 0x4 ADD PUSH2 0xEBD SWAP1 PUSH2 0x1CD4 JUMP JUMPDEST PUSH1 0x40 MLOAD DUP1 SWAP2 SUB SWAP1 REVERT JUMPDEST PUSH1 0x0 PUSH1 0xB PUSH1 0x0 PUSH1 0xC SLOAD DUP2 MSTORE PUSH1 0x20 ADD SWAP1 DUP2 MSTORE PUSH1 0x20 ADD PUSH1 0x0 KECCAK256 SWAP1 POP PUSH1 0xC PUSH1 0x0 DUP2 SLOAD DUP1 SWAP3 SWAP2 SWAP1 PUSH2 0xEF2 SWAP1 PUSH2 0x1D60 JUMP JUMPDEST SWAP2 SWAP1 POP SSTORE POP DUP5 DUP2 PUSH1 0x0 ADD SWAP1 DUP2 PUSH2 0xF08 SWAP2 SWAP1 PUSH2 0x22BC JUMP JUMPDEST POP DUP4 DUP2 PUSH1 0x1 ADD DUP2 SWAP1 SSTORE POP PUSH1 0x0 DUP2 PUSH1 0x2 ADD DUP2 SWAP1 SSTORE POP PUSH1 0x0 DUP2 PUSH1 0x4 ADD PUSH1 0x0 PUSH2 0x100 EXP DUP2 SLOAD DUP2 PUSH1 0xFF MUL NOT AND SWAP1 DUP4 ISZERO ISZERO MUL OR SWAP1 SSTORE POP DUP3 DUP2 PUSH1 0x4 ADD PUSH1 0x1 PUSH2 0x100 EXP DUP2 SLOAD DUP2 PUSH20 0xFFFFFFFFFFFFFFFFFFFFFFFFFFFFFFFFFFFFFFFF MUL NOT AND SWAP1 DUP4 PUSH20 0xFFFFFFFFFFFFFFFFFFFFFFFFFFFFFFFFFFFFFFFF AND MUL OR SWAP1 SSTORE POP PUSH32 0x9883A4E4F8698E4CC93BAFB8D0D2376CB8C51DD322CB9FD80D02C691FCDEA503 PUSH1 0xC SLOAD DUP7 DUP7 PUSH1 0x0 DUP1 DUP9 PUSH1 0x40 MLOAD PUSH2 0xFB8 SWAP7 SWAP6 SWAP5 SWAP4 SWAP3 SWAP2 SWAP1 PUSH2 0x23C9 JUMP JUMPDEST PUSH1 0x40 MLOAD DUP1 SWAP2 SUB SWAP1 LOG1 POP POP POP POP POP JUMP JUMPDEST PUSH1 0xC SLOAD DUP2 JUMP JUMPDEST PUSH1 0x3 SLOAD DUP2 JUMP JUMPDEST PUSH1 0x9 PUSH1 0x0 SWAP1 SLOAD SWAP1 PUSH2 0x100 EXP SWAP1 DIV PUSH1 0xFF AND DUP2 JUMP JUMPDEST PUSH1 0x7 DUP1 SLOAD PUSH2 0xFF3 SWAP1 PUSH2 0x1A78 JUMP JUMPDEST DUP1 PUSH1 0x1F ADD PUSH1 0x20 DUP1 SWAP2 DIV MUL PUSH1 0x20 ADD PUSH1 0x40 MLOAD SWAP1 DUP2 ADD PUSH1 0x40 MSTORE DUP1 SWAP3 SWAP2 SWAP1 DUP2 DUP2 MSTORE PUSH1 0x20 ADD DUP3 DUP1 SLOAD PUSH2 0x101F SWAP1 PUSH2 0x1A78 JUMP JUMPDEST DUP1 ISZERO PUSH2 0x106C JUMPI DUP1 PUSH1 0x1F LT PUSH2 0x1041 JUMPI PUSH2 0x100 DUP1 DUP4 SLOAD DIV MUL DUP4 MSTORE SWAP2 PUSH1 0x20 ADD SWAP2 PUSH2 0x106C JUMP JUMPDEST DUP3 ADD SWAP2 SWAP1 PUSH1 0x0 MSTORE PUSH1 0x20 PUSH1 0x0 KECCAK256 SWAP1 JUMPDEST DUP2 SLOAD DUP2 MSTORE SWAP1 PUSH1 0x1 ADD SWAP1 PUSH1 0x20 ADD DUP1 DUP4 GT PUSH2 0x104F JUMPI DUP3 SWAP1 SUB PUSH1 0x1F AND DUP3 ADD SWAP2 JUMPDEST POP POP POP POP POP DUP2 JUMP JUMPDEST PUSH1 0x5 SLOAD DUP2 JUMP JUMPDEST PUSH1 0x0 PUSH1 0x1 DUP1 PUSH1 0x2 DUP2 GT ISZERO PUSH2 0x1091 JUMPI PUSH2 0x1090 PUSH2 0x18F2 JUMP JUMPDEST JUMPDEST PUSH1 0x9 PUSH1 0x0 SWAP1 SLOAD SWAP1 PUSH2 0x100 EXP SWAP1 DIV PUSH1 0xFF AND PUSH1 0x2 DUP2 GT ISZERO PUSH2 0x10B3 JUMPI PUSH2 0x10B2 PUSH2 0x18F2 JUMP JUMPDEST JUMPDEST EQ PUSH2 0x10F3 JUMPI PUSH1 0x40 MLOAD PUSH32 0x8C379A000000000000000000000000000000000000000000000000000000000 DUP2 MSTORE PUSH1 0x4 ADD PUSH2 0x10EA SWAP1 PUSH2 0x1C68 JUMP JUMPDEST PUSH1 0x40 MLOAD DUP1 SWAP2 SUB SWAP1 REVERT JUMPDEST PUSH1 0x2 SLOAD TIMESTAMP LT PUSH2 0x1137 JUMPI PUSH1 0x40 MLOAD PUSH32 0x8C379A000000000000000000000000000000000000000000000000000000000 DUP2 MSTORE PUSH1 0x4 ADD PUSH2 0x112E SWAP1 PUSH2 0x1CD4 JUMP JUMPDEST PUSH1 0x40 MLOAD DUP1 SWAP2 SUB SWAP1 REVERT JUMPDEST PUSH1 0x0 PUSH1 0xA PUSH1 0x0 CALLER PUSH20 0xFFFFFFFFFFFFFFFFFFFFFFFFFFFFFFFFFFFFFFFF AND PUSH20 0xFFFFFFFFFFFFFFFFFFFFFFFFFFFFFFFFFFFFFFFF AND DUP2 MSTORE PUSH1 0x20 ADD SWAP1 DUP2 MSTORE PUSH1 0x20 ADD PUSH1 0x0 KECCAK256 SLOAD GT PUSH2 0x11B9 JUMPI PUSH1 0x40 MLOAD PUSH32 0x8C379A000000000000000000000000000000000000000000000000000000000 DUP2 MSTORE PUSH1 0x4 ADD PUSH2 0x11B0 SWAP1 PUSH2 0x24A3 JUMP JUMPDEST PUSH1 0x40 MLOAD DUP1 SWAP2 SUB SWAP1 REVERT JUMPDEST PUSH1 0x0 CALLER SWAP1 POP DUP1 PUSH20 0xFFFFFFFFFFFFFFFFFFFFFFFFFFFFFFFFFFFFFFFF AND PUSH2 0x8FC PUSH1 0xA PUSH1 0x0 CALLER PUSH20 0xFFFFFFFFFFFFFFFFFFFFFFFFFFFFFFFFFFFFFFFF AND PUSH20 0xFFFFFFFFFFFFFFFFFFFFFFFFFFFFFFFFFFFFFFFF AND DUP2 MSTORE PUSH1 0x20 ADD SWAP1 DUP2 MSTORE PUSH1 0x20 ADD PUSH1 0x0 KECCAK256 SLOAD SWAP1 DUP2 ISZERO MUL SWAP1 PUSH1 0x40 MLOAD PUSH1 0x0 PUSH1 0x40 MLOAD DUP1 DUP4 SUB DUP2 DUP6 DUP9 DUP9 CALL SWAP4 POP POP POP POP ISZERO DUP1 ISZERO PUSH2 0x1243 JUMPI RETURNDATASIZE PUSH1 0x0 DUP1 RETURNDATACOPY RETURNDATASIZE PUSH1 0x0 REVERT JUMPDEST POP PUSH1 0x0 PUSH1 0xA PUSH1 0x0 CALLER PUSH20 0xFFFFFFFFFFFFFFFFFFFFFFFFFFFFFFFFFFFFFFFF AND PUSH20 0xFFFFFFFFFFFFFFFFFFFFFFFFFFFFFFFFFFFFFFFF AND DUP2 MSTORE PUSH1 0x20 ADD SWAP1 DUP2 MSTORE PUSH1 0x20 ADD PUSH1 0x0 KECCAK256 DUP2 SWAP1 SSTORE POP PUSH1 0x1 SWAP3 POP POP POP SWAP1 JUMP JUMPDEST PUSH1 0x0 DUP1 PUSH1 0x0 DUP1 PUSH1 0x0 DUP1 PUSH1 0x60 DUP1 PUSH1 0x0 DUP1 PUSH1 0x0 DUP1 SLOAD SWAP1 PUSH2 0x100 EXP SWAP1 DIV PUSH20 0xFFFFFFFFFFFFFFFFFFFFFFFFFFFFFFFFFFFFFFFF AND SWAP10 POP PUSH1 0x1 SLOAD SWAP9 POP PUSH1 0x2 SLOAD SWAP8 POP PUSH1 0x3 SLOAD SWAP7 POP PUSH1 0x4 SLOAD SWAP6 POP PUSH1 0x5 SLOAD SWAP5 POP PUSH1 0x7 DUP1 SLOAD PUSH2 0x12EA SWAP1 PUSH2 0x1A78 JUMP JUMPDEST DUP1 PUSH1 0x1F ADD PUSH1 0x20 DUP1 SWAP2 DIV MUL PUSH1 0x20 ADD PUSH1 0x40 MLOAD SWAP1 DUP2 ADD PUSH1 0x40 MSTORE DUP1 SWAP3 SWAP2 SWAP1 DUP2 DUP2 MSTORE PUSH1 0x20 ADD DUP3 DUP1 SLOAD PUSH2 0x1316 SWAP1 PUSH2 0x1A78 JUMP JUMPDEST DUP1 ISZERO PUSH2 0x1363 JUMPI DUP1 PUSH1 0x1F LT PUSH2 0x1338 JUMPI PUSH2 0x100 DUP1 DUP4 SLOAD DIV MUL DUP4 MSTORE SWAP2 PUSH1 0x20 ADD SWAP2 PUSH2 0x1363 JUMP JUMPDEST DUP3 ADD SWAP2 SWAP1 PUSH1 0x0 MSTORE PUSH1 0x20 PUSH1 0x0 KECCAK256 SWAP1 JUMPDEST DUP2 SLOAD DUP2 MSTORE SWAP1 PUSH1 0x1 ADD SWAP1 PUSH1 0x20 ADD DUP1 DUP4 GT PUSH2 0x1346 JUMPI DUP3 SWAP1 SUB PUSH1 0x1F AND DUP3 ADD SWAP2 JUMPDEST POP POP POP POP POP SWAP4 POP PUSH1 0x8 DUP1 SLOAD PUSH2 0x1377 SWAP1 PUSH2 0x1A78 JUMP JUMPDEST DUP1 PUSH1 0x1F ADD PUSH1 0x20 DUP1 SWAP2 DIV MUL PUSH1 0x20 ADD PUSH1 0x40 MLOAD SWAP1 DUP2 ADD PUSH1 0x40 MSTORE DUP1 SWAP3 SWAP2 SWAP1 DUP2 DUP2 MSTORE PUSH1 0x20 ADD DUP3 DUP1 SLOAD PUSH2 0x13A3 SWAP1 PUSH2 0x1A78 JUMP JUMPDEST DUP1 ISZERO PUSH2 0x13F0 JUMPI DUP1 PUSH1 0x1F LT PUSH2 0x13C5 JUMPI PUSH2 0x100 DUP1 DUP4 SLOAD DIV MUL DUP4 MSTORE SWAP2 PUSH1 0x20 ADD SWAP2 PUSH2 0x13F0 JUMP JUMPDEST DUP3 ADD SWAP2 SWAP1 PUSH1 0x0 MSTORE PUSH1 0x20 PUSH1 0x0 KECCAK256 SWAP1 JUMPDEST DUP2 SLOAD DUP2 MSTORE SWAP1 PUSH1 0x1 ADD SWAP1 PUSH1 0x20 ADD DUP1 DUP4 GT PUSH2 0x13D3 JUMPI DUP3 SWAP1 SUB PUSH1 0x1F AND DUP3 ADD SWAP2 JUMPDEST POP POP POP POP POP SWAP3 POP PUSH1 0x9 PUSH1 0x0 SWAP1 SLOAD SWAP1 PUSH2 0x100 EXP SWAP1 DIV PUSH1 0xFF AND SWAP2 POP SELFBALANCE SWAP1 POP SWAP1 SWAP2 SWAP3 SWAP4 SWAP5 SWAP6 SWAP7 SWAP8 SWAP9 SWAP10 JUMP JUMPDEST PUSH1 0x3 SLOAD PUSH1 0x5 SLOAD LT PUSH2 0x1453 JUMPI PUSH1 0x2 PUSH1 0x9 PUSH1 0x0 PUSH2 0x100 EXP DUP2 SLOAD DUP2 PUSH1 0xFF MUL NOT AND SWAP1 DUP4 PUSH1 0x2 DUP2 GT ISZERO PUSH2 0x1449 JUMPI PUSH2 0x1448 PUSH2 0x18F2 JUMP JUMPDEST JUMPDEST MUL OR SWAP1 SSTORE POP PUSH2 0x148A JUMP JUMPDEST PUSH1 0x2 SLOAD TIMESTAMP GT ISZERO PUSH2 0x1489 JUMPI PUSH1 0x1 PUSH1 0x9 PUSH1 0x0 PUSH2 0x100 EXP DUP2 SLOAD DUP2 PUSH1 0xFF MUL NOT AND SWAP1 DUP4 PUSH1 0x2 DUP2 GT ISZERO PUSH2 0x1483 JUMPI PUSH2 0x1482 PUSH2 0x18F2 JUMP JUMPDEST JUMPDEST MUL OR SWAP1 SSTORE POP JUMPDEST JUMPDEST TIMESTAMP PUSH1 0x4 DUP2 SWAP1 SSTORE POP JUMP JUMPDEST PUSH1 0x0 PUSH20 0xFFFFFFFFFFFFFFFFFFFFFFFFFFFFFFFFFFFFFFFF DUP3 AND SWAP1 POP SWAP2 SWAP1 POP JUMP JUMPDEST PUSH1 0x0 PUSH2 0x14BE DUP3 PUSH2 0x1493 JUMP JUMPDEST SWAP1 POP SWAP2 SWAP1 POP JUMP JUMPDEST PUSH2 0x14CE DUP2 PUSH2 0x14B3 JUMP JUMPDEST DUP3 MSTORE POP POP JUMP JUMPDEST PUSH1 0x0 PUSH1 0x20 DUP3 ADD SWAP1 POP PUSH2 0x14E9 PUSH1 0x0 DUP4 ADD DUP5 PUSH2 0x14C5 JUMP JUMPDEST SWAP3 SWAP2 POP POP JUMP JUMPDEST PUSH1 0x0 DUP2 MLOAD SWAP1 POP SWAP2 SWAP1 POP JUMP JUMPDEST PUSH1 0x0 DUP3 DUP3 MSTORE PUSH1 0x20 DUP3 ADD SWAP1 POP SWAP3 SWAP2 POP POP JUMP JUMPDEST PUSH1 0x0 JUMPDEST DUP4 DUP2 LT ISZERO PUSH2 0x1529 JUMPI DUP1 DUP3 ADD MLOAD DUP2 DUP5 ADD MSTORE PUSH1 0x20 DUP2 ADD SWAP1 POP PUSH2 0x150E JUMP JUMPDEST PUSH1 0x0 DUP5 DUP5 ADD MSTORE POP POP POP POP JUMP JUMPDEST PUSH1 0x0 PUSH1 0x1F NOT PUSH1 0x1F DUP4 ADD AND SWAP1 POP SWAP2 SWAP1 POP JUMP JUMPDEST PUSH1 0x0 PUSH2 0x1551 DUP3 PUSH2 0x14EF JUMP JUMPDEST PUSH2 0x155B DUP2 DUP6 PUSH2 0x14FA JUMP JUMPDEST SWAP4 POP PUSH2 0x156B DUP2 DUP6 PUSH1 0x20 DUP7 ADD PUSH2 0x150B JUMP JUMPDEST PUSH2 0x1574 DUP2 PUSH2 0x1535 JUMP JUMPDEST DUP5 ADD SWAP2 POP POP SWAP3 SWAP2 POP POP JUMP JUMPDEST PUSH1 0x0 PUSH1 0x20 DUP3 ADD SWAP1 POP DUP2 DUP2 SUB PUSH1 0x0 DUP4 ADD MSTORE PUSH2 0x1599 DUP2 DUP5 PUSH2 0x1546 JUMP JUMPDEST SWAP1 POP SWAP3 SWAP2 POP POP JUMP JUMPDEST PUSH1 0x0 PUSH1 0x40 MLOAD SWAP1 POP SWAP1 JUMP JUMPDEST PUSH1 0x0 DUP1 REVERT JUMPDEST PUSH1 0x0 DUP1 REVERT JUMPDEST PUSH1 0x0 PUSH2 0x15C0 DUP3 PUSH2 0x1493 JUMP JUMPDEST SWAP1 POP SWAP2 SWAP1 POP JUMP JUMPDEST PUSH2 0x15D0 DUP2 PUSH2 0x15B5 JUMP JUMPDEST DUP2 EQ PUSH2 0x15DB JUMPI PUSH1 0x0 DUP1 REVERT JUMPDEST POP JUMP JUMPDEST PUSH1 0x0 DUP2 CALLDATALOAD SWAP1 POP PUSH2 0x15ED DUP2 PUSH2 0x15C7 JUMP JUMPDEST SWAP3 SWAP2 POP POP JUMP JUMPDEST PUSH1 0x0 PUSH1 0x20 DUP3 DUP5 SUB SLT ISZERO PUSH2 0x1609 JUMPI PUSH2 0x1608 PUSH2 0x15AB JUMP JUMPDEST JUMPDEST PUSH1 0x0 PUSH2 0x1617 DUP5 DUP3 DUP6 ADD PUSH2 0x15DE JUMP JUMPDEST SWAP2 POP POP SWAP3 SWAP2 POP POP JUMP JUMPDEST PUSH1 0x0 DUP2 SWAP1 POP SWAP2 SWAP1 POP JUMP JUMPDEST PUSH2 0x1633 DUP2 PUSH2 0x1620 JUMP JUMPDEST DUP3 MSTORE POP POP JUMP JUMPDEST PUSH1 0x0 PUSH1 0x20 DUP3 ADD SWAP1 POP PUSH2 0x164E PUSH1 0x0 DUP4 ADD DUP5 PUSH2 0x162A JUMP JUMPDEST SWAP3 SWAP2 POP POP JUMP JUMPDEST PUSH2 0x165D DUP2 PUSH2 0x1620 JUMP JUMPDEST DUP2 EQ PUSH2 0x1668 JUMPI PUSH1 0x0 DUP1 REVERT JUMPDEST POP JUMP JUMPDEST PUSH1 0x0 DUP2 CALLDATALOAD SWAP1 POP PUSH2 0x167A DUP2 PUSH2 0x1654 JUMP JUMPDEST SWAP3 SWAP2 POP POP JUMP JUMPDEST PUSH1 0x0 PUSH1 0x20 DUP3 DUP5 SUB SLT ISZERO PUSH2 0x1696 JUMPI PUSH2 0x1695 PUSH2 0x15AB JUMP JUMPDEST JUMPDEST PUSH1 0x0 PUSH2 0x16A4 DUP5 DUP3 DUP6 ADD PUSH2 0x166B JUMP JUMPDEST SWAP2 POP POP SWAP3 SWAP2 POP POP JUMP JUMPDEST PUSH1 0x0 DUP2 ISZERO ISZERO SWAP1 POP SWAP2 SWAP1 POP JUMP JUMPDEST PUSH2 0x16C2 DUP2 PUSH2 0x16AD JUMP JUMPDEST DUP3 MSTORE POP POP JUMP JUMPDEST PUSH1 0x0 PUSH1 0xA0 DUP3 ADD SWAP1 POP DUP2 DUP2 SUB PUSH1 0x0 DUP4 ADD MSTORE PUSH2 0x16E2 DUP2 DUP9 PUSH2 0x1546 JUMP JUMPDEST SWAP1 POP PUSH2 0x16F1 PUSH1 0x20 DUP4 ADD DUP8 PUSH2 0x162A JUMP JUMPDEST PUSH2 0x16FE PUSH1 0x40 DUP4 ADD DUP7 PUSH2 0x162A JUMP JUMPDEST PUSH2 0x170B PUSH1 0x60 DUP4 ADD DUP6 PUSH2 0x16B9 JUMP JUMPDEST PUSH2 0x1718 PUSH1 0x80 DUP4 ADD DUP5 PUSH2 0x14C5 JUMP JUMPDEST SWAP7 SWAP6 POP POP POP POP POP POP JUMP JUMPDEST PUSH1 0x0 DUP1 REVERT JUMPDEST PUSH1 0x0 DUP1 REVERT JUMPDEST PUSH32 0x4E487B7100000000000000000000000000000000000000000000000000000000 PUSH1 0x0 MSTORE PUSH1 0x41 PUSH1 0x4 MSTORE PUSH1 0x24 PUSH1 0x0 REVERT JUMPDEST PUSH2 0x1764 DUP3 PUSH2 0x1535 JUMP JUMPDEST DUP2 ADD DUP2 DUP2 LT PUSH8 0xFFFFFFFFFFFFFFFF DUP3 GT OR ISZERO PUSH2 0x1783 JUMPI PUSH2 0x1782 PUSH2 0x172C JUMP JUMPDEST JUMPDEST DUP1 PUSH1 0x40 MSTORE POP POP POP JUMP JUMPDEST PUSH1 0x0 PUSH2 0x1796 PUSH2 0x15A1 JUMP JUMPDEST SWAP1 POP PUSH2 0x17A2 DUP3 DUP3 PUSH2 0x175B JUMP JUMPDEST SWAP2 SWAP1 POP JUMP JUMPDEST PUSH1 0x0 PUSH8 0xFFFFFFFFFFFFFFFF DUP3 GT ISZERO PUSH2 0x17C2 JUMPI PUSH2 0x17C1 PUSH2 0x172C JUMP JUMPDEST JUMPDEST PUSH2 0x17CB DUP3 PUSH2 0x1535 JUMP JUMPDEST SWAP1 POP PUSH1 0x20 DUP2 ADD SWAP1 POP SWAP2 SWAP1 POP JUMP JUMPDEST DUP3 DUP2 DUP4 CALLDATACOPY PUSH1 0x0 DUP4 DUP4 ADD MSTORE POP POP POP JUMP JUMPDEST PUSH1 0x0 PUSH2 0x17FA PUSH2 0x17F5 DUP5 PUSH2 0x17A7 JUMP JUMPDEST PUSH2 0x178C JUMP JUMPDEST SWAP1 POP DUP3 DUP2 MSTORE PUSH1 0x20 DUP2 ADD DUP5 DUP5 DUP5 ADD GT ISZERO PUSH2 0x1816 JUMPI PUSH2 0x1815 PUSH2 0x1727 JUMP JUMPDEST JUMPDEST PUSH2 0x1821 DUP5 DUP3 DUP6 PUSH2 0x17D8 JUMP JUMPDEST POP SWAP4 SWAP3 POP POP POP JUMP JUMPDEST PUSH1 0x0 DUP3 PUSH1 0x1F DUP4 ADD SLT PUSH2 0x183E JUMPI PUSH2 0x183D PUSH2 0x1722 JUMP JUMPDEST JUMPDEST DUP2 CALLDATALOAD PUSH2 0x184E DUP5 DUP3 PUSH1 0x20 DUP7 ADD PUSH2 0x17E7 JUMP JUMPDEST SWAP2 POP POP SWAP3 SWAP2 POP POP JUMP JUMPDEST PUSH2 0x1860 DUP2 PUSH2 0x14B3 JUMP JUMPDEST DUP2 EQ PUSH2 0x186B JUMPI PUSH1 0x0 DUP1 REVERT JUMPDEST POP JUMP JUMPDEST PUSH1 0x0 DUP2 CALLDATALOAD SWAP1 POP PUSH2 0x187D DUP2 PUSH2 0x1857 JUMP JUMPDEST SWAP3 SWAP2 POP POP JUMP JUMPDEST PUSH1 0x0 DUP1 PUSH1 0x0 PUSH1 0x60 DUP5 DUP7 SUB SLT ISZERO PUSH2 0x189C JUMPI PUSH2 0x189B PUSH2 0x15AB JUMP JUMPDEST JUMPDEST PUSH1 0x0 DUP5 ADD CALLDATALOAD PUSH8 0xFFFFFFFFFFFFFFFF DUP2 GT ISZERO PUSH2 0x18BA JUMPI PUSH2 0x18B9 PUSH2 0x15B0 JUMP JUMPDEST JUMPDEST PUSH2 0x18C6 DUP7 DUP3 DUP8 ADD PUSH2 0x1829 JUMP JUMPDEST SWAP4 POP POP PUSH1 0x20 PUSH2 0x18D7 DUP7 DUP3 DUP8 ADD PUSH2 0x166B JUMP JUMPDEST SWAP3 POP POP PUSH1 0x40 PUSH2 0x18E8 DUP7 DUP3 DUP8 ADD PUSH2 0x186E JUMP JUMPDEST SWAP2 POP POP SWAP3 POP SWAP3 POP SWAP3 JUMP JUMPDEST PUSH32 0x4E487B7100000000000000000000000000000000000000000000000000000000 PUSH1 0x0 MSTORE PUSH1 0x21 PUSH1 0x4 MSTORE PUSH1 0x24 PUSH1 0x0 REVERT JUMPDEST PUSH1 0x3 DUP2 LT PUSH2 0x1932 JUMPI PUSH2 0x1931 PUSH2 0x18F2 JUMP JUMPDEST JUMPDEST POP JUMP JUMPDEST PUSH1 0x0 DUP2 SWAP1 POP PUSH2 0x1943 DUP3 PUSH2 0x1921 JUMP JUMPDEST SWAP2 SWAP1 POP JUMP JUMPDEST PUSH1 0x0 PUSH2 0x1953 DUP3 PUSH2 0x1935 JUMP JUMPDEST SWAP1 POP SWAP2 SWAP1 POP JUMP JUMPDEST PUSH2 0x1963 DUP2 PUSH2 0x1948 JUMP JUMPDEST DUP3 MSTORE POP POP JUMP JUMPDEST PUSH1 0x0 PUSH1 0x20 DUP3 ADD SWAP1 POP PUSH2 0x197E PUSH1 0x0 DUP4 ADD DUP5 PUSH2 0x195A JUMP JUMPDEST SWAP3 SWAP2 POP POP JUMP JUMPDEST PUSH1 0x0 PUSH1 0x20 DUP3 ADD SWAP1 POP PUSH2 0x1999 PUSH1 0x0 DUP4 ADD DUP5 PUSH2 0x16B9 JUMP JUMPDEST SWAP3 SWAP2 POP POP JUMP JUMPDEST PUSH1 0x0 PUSH2 0x140 DUP3 ADD SWAP1 POP PUSH2 0x19B5 PUSH1 0x0 DUP4 ADD DUP14 PUSH2 0x14C5 JUMP JUMPDEST PUSH2 0x19C2 PUSH1 0x20 DUP4 ADD DUP13 PUSH2 0x162A JUMP JUMPDEST PUSH2 0x19CF PUSH1 0x40 DUP4 ADD DUP12 PUSH2 0x162A JUMP JUMPDEST PUSH2 0x19DC PUSH1 0x60 DUP4 ADD DUP11 PUSH2 0x162A JUMP JUMPDEST PUSH2 0x19E9 PUSH1 0x80 DUP4 ADD DUP10 PUSH2 0x162A JUMP JUMPDEST PUSH2 0x19F6 PUSH1 0xA0 DUP4 ADD DUP9 PUSH2 0x162A JUMP JUMPDEST DUP2 DUP2 SUB PUSH1 0xC0 DUP4 ADD MSTORE PUSH2 0x1A08 DUP2 DUP8 PUSH2 0x1546 JUMP JUMPDEST SWAP1 POP DUP2 DUP2 SUB PUSH1 0xE0 DUP4 ADD MSTORE PUSH2 0x1A1C DUP2 DUP7 PUSH2 0x1546 JUMP JUMPDEST SWAP1 POP PUSH2 0x1A2C PUSH2 0x100 DUP4 ADD DUP6 PUSH2 0x195A JUMP JUMPDEST PUSH2 0x1A3A PUSH2 0x120 DUP4 ADD DUP5 PUSH2 0x162A JUMP JUMPDEST SWAP12 SWAP11 POP POP POP POP POP POP POP POP POP POP POP JUMP JUMPDEST PUSH32 0x4E487B7100000000000000000000000000000000000000000000000000000000 PUSH1 0x0 MSTORE PUSH1 0x22 PUSH1 0x4 MSTORE PUSH1 0x24 PUSH1 0x0 REVERT JUMPDEST PUSH1 0x0 PUSH1 0x2 DUP3 DIV SWAP1 POP PUSH1 0x1 DUP3 AND DUP1 PUSH2 0x1A90 JUMPI PUSH1 0x7F DUP3 AND SWAP2 POP JUMPDEST PUSH1 0x20 DUP3 LT DUP2 SUB PUSH2 0x1AA3 JUMPI PUSH2 0x1AA2 PUSH2 0x1A49 JUMP JUMPDEST JUMPDEST POP SWAP2 SWAP1 POP JUMP JUMPDEST PUSH32 0x4F6E6C7920636F6E7472696275746F722063616E20766F746520210000000000 PUSH1 0x0 DUP3 ADD MSTORE POP JUMP JUMPDEST PUSH1 0x0 PUSH2 0x1ADF PUSH1 0x1B DUP4 PUSH2 0x14FA JUMP JUMPDEST SWAP2 POP PUSH2 0x1AEA DUP3 PUSH2 0x1AA9 JUMP JUMPDEST PUSH1 0x20 DUP3 ADD SWAP1 POP SWAP2 SWAP1 POP JUMP JUMPDEST PUSH1 0x0 PUSH1 0x20 DUP3 ADD SWAP1 POP DUP2 DUP2 SUB PUSH1 0x0 DUP4 ADD MSTORE PUSH2 0x1B0E DUP2 PUSH2 0x1AD2 JUMP JUMPDEST SWAP1 POP SWAP2 SWAP1 POP JUMP JUMPDEST PUSH32 0x596F7520616C726561647920766F746564202100000000000000000000000000 PUSH1 0x0 DUP3 ADD MSTORE POP JUMP JUMPDEST PUSH1 0x0 PUSH2 0x1B4B PUSH1 0x13 DUP4 PUSH2 0x14FA JUMP JUMPDEST SWAP2 POP PUSH2 0x1B56 DUP3 PUSH2 0x1B15 JUMP JUMPDEST PUSH1 0x20 DUP3 ADD SWAP1 POP SWAP2 SWAP1 POP JUMP JUMPDEST PUSH1 0x0 PUSH1 0x20 DUP3 ADD SWAP1 POP DUP2 DUP2 SUB PUSH1 0x0 DUP4 ADD MSTORE PUSH2 0x1B7A DUP2 PUSH2 0x1B3E JUMP JUMPDEST SWAP1 POP SWAP2 SWAP1 POP JUMP JUMPDEST PUSH32 0x4E487B7100000000000000000000000000000000000000000000000000000000 PUSH1 0x0 MSTORE PUSH1 0x11 PUSH1 0x4 MSTORE PUSH1 0x24 PUSH1 0x0 REVERT JUMPDEST PUSH1 0x0 PUSH2 0x1BBB DUP3 PUSH2 0x1620 JUMP JUMPDEST SWAP2 POP PUSH2 0x1BC6 DUP4 PUSH2 0x1620 JUMP JUMPDEST SWAP3 POP DUP3 DUP3 ADD SWAP1 POP DUP1 DUP3 GT ISZERO PUSH2 0x1BDE JUMPI PUSH2 0x1BDD PUSH2 0x1B81 JUMP JUMPDEST JUMPDEST SWAP3 SWAP2 POP POP JUMP JUMPDEST PUSH2 0x1BED DUP2 PUSH2 0x15B5 JUMP JUMPDEST DUP3 MSTORE POP POP JUMP JUMPDEST PUSH1 0x0 PUSH1 0x40 DUP3 ADD SWAP1 POP PUSH2 0x1C08 PUSH1 0x0 DUP4 ADD DUP6 PUSH2 0x1BE4 JUMP JUMPDEST PUSH2 0x1C15 PUSH1 0x20 DUP4 ADD DUP5 PUSH2 0x162A JUMP JUMPDEST SWAP4 SWAP3 POP POP POP JUMP JUMPDEST PUSH32 0x496E76616C696420737461746500000000000000000000000000000000000000 PUSH1 0x0 DUP3 ADD MSTORE POP JUMP JUMPDEST PUSH1 0x0 PUSH2 0x1C52 PUSH1 0xD DUP4 PUSH2 0x14FA JUMP JUMPDEST SWAP2 POP PUSH2 0x1C5D DUP3 PUSH2 0x1C1C JUMP JUMPDEST PUSH1 0x20 DUP3 ADD SWAP1 POP SWAP2 SWAP1 POP JUMP JUMPDEST PUSH1 0x0 PUSH1 0x20 DUP3 ADD SWAP1 POP DUP2 DUP2 SUB PUSH1 0x0 DUP4 ADD MSTORE PUSH2 0x1C81 DUP2 PUSH2 0x1C45 JUMP JUMPDEST SWAP1 POP SWAP2 SWAP1 POP JUMP JUMPDEST PUSH32 0x446561646C696E65206861732070617373656420210000000000000000000000 PUSH1 0x0 DUP3 ADD MSTORE POP JUMP JUMPDEST PUSH1 0x0 PUSH2 0x1CBE PUSH1 0x15 DUP4 PUSH2 0x14FA JUMP JUMPDEST SWAP2 POP PUSH2 0x1CC9 DUP3 PUSH2 0x1C88 JUMP JUMPDEST PUSH1 0x20 DUP3 ADD SWAP1 POP SWAP2 SWAP1 POP JUMP JUMPDEST PUSH1 0x0 PUSH1 0x20 DUP3 ADD SWAP1 POP DUP2 DUP2 SUB PUSH1 0x0 DUP4 ADD MSTORE PUSH2 0x1CED DUP2 PUSH2 0x1CB1 JUMP JUMPDEST SWAP1 POP SWAP2 SWAP1 POP JUMP JUMPDEST PUSH32 0x436F6E747269627574696F6E20616D6F756E7420697320746F6F206C6F772021 PUSH1 0x0 DUP3 ADD MSTORE POP JUMP JUMPDEST PUSH1 0x0 PUSH2 0x1D2A PUSH1 0x20 DUP4 PUSH2 0x14FA JUMP JUMPDEST SWAP2 POP PUSH2 0x1D35 DUP3 PUSH2 0x1CF4 JUMP JUMPDEST PUSH1 0x20 DUP3 ADD SWAP1 POP SWAP2 SWAP1 POP JUMP JUMPDEST PUSH1 0x0 PUSH1 0x20 DUP3 ADD SWAP1 POP DUP2 DUP2 SUB PUSH1 0x0 DUP4 ADD MSTORE PUSH2 0x1D59 DUP2 PUSH2 0x1D1D JUMP JUMPDEST SWAP1 POP SWAP2 SWAP1 POP JUMP JUMPDEST PUSH1 0x0 PUSH2 0x1D6B DUP3 PUSH2 0x1620 JUMP JUMPDEST SWAP2 POP PUSH32 0xFFFFFFFFFFFFFFFFFFFFFFFFFFFFFFFFFFFFFFFFFFFFFFFFFFFFFFFFFFFFFFFF DUP3 SUB PUSH2 0x1D9D JUMPI PUSH2 0x1D9C PUSH2 0x1B81 JUMP JUMPDEST JUMPDEST PUSH1 0x1 DUP3 ADD SWAP1 POP SWAP2 SWAP1 POP JUMP JUMPDEST PUSH1 0x0 PUSH1 0x60 DUP3 ADD SWAP1 POP PUSH2 0x1DBD PUSH1 0x0 DUP4 ADD DUP7 PUSH2 0x1BE4 JUMP JUMPDEST PUSH2 0x1DCA PUSH1 0x20 DUP4 ADD DUP6 PUSH2 0x162A JUMP JUMPDEST PUSH2 0x1DD7 PUSH1 0x40 DUP4 ADD DUP5 PUSH2 0x162A JUMP JUMPDEST SWAP5 SWAP4 POP POP POP POP JUMP JUMPDEST PUSH32 0x596F7520646F6E7420686176652061636365737320746F20706572666F726D20 PUSH1 0x0 DUP3 ADD MSTORE PUSH32 0x74686973206F7065726174696F6E202100000000000000000000000000000000 PUSH1 0x20 DUP3 ADD MSTORE POP JUMP JUMPDEST PUSH1 0x0 PUSH2 0x1E3B PUSH1 0x30 DUP4 PUSH2 0x14FA JUMP JUMPDEST SWAP2 POP PUSH2 0x1E46 DUP3 PUSH2 0x1DDF JUMP JUMPDEST PUSH1 0x40 DUP3 ADD SWAP1 POP SWAP2 SWAP1 POP JUMP JUMPDEST PUSH1 0x0 PUSH1 0x20 DUP3 ADD SWAP1 POP DUP2 DUP2 SUB PUSH1 0x0 DUP4 ADD MSTORE PUSH2 0x1E6A DUP2 PUSH2 0x1E2E JUMP JUMPDEST SWAP1 POP SWAP2 SWAP1 POP JUMP JUMPDEST PUSH32 0x5265717565737420616C726561647920636F6D706C6574656400000000000000 PUSH1 0x0 DUP3 ADD MSTORE POP JUMP JUMPDEST PUSH1 0x0 PUSH2 0x1EA7 PUSH1 0x19 DUP4 PUSH2 0x14FA JUMP JUMPDEST SWAP2 POP PUSH2 0x1EB2 DUP3 PUSH2 0x1E71 JUMP JUMPDEST PUSH1 0x20 DUP3 ADD SWAP1 POP SWAP2 SWAP1 POP JUMP JUMPDEST PUSH1 0x0 PUSH1 0x20 DUP3 ADD SWAP1 POP DUP2 DUP2 SUB PUSH1 0x0 DUP4 ADD MSTORE PUSH2 0x1ED6 DUP2 PUSH2 0x1E9A JUMP JUMPDEST SWAP1 POP SWAP2 SWAP1 POP JUMP JUMPDEST PUSH32 0x4E487B7100000000000000000000000000000000000000000000000000000000 PUSH1 0x0 MSTORE PUSH1 0x12 PUSH1 0x4 MSTORE PUSH1 0x24 PUSH1 0x0 REVERT JUMPDEST PUSH1 0x0 PUSH2 0x1F17 DUP3 PUSH2 0x1620 JUMP JUMPDEST SWAP2 POP PUSH2 0x1F22 DUP4 PUSH2 0x1620 JUMP JUMPDEST SWAP3 POP DUP3 PUSH2 0x1F32 JUMPI PUSH2 0x1F31 PUSH2 0x1EDD JUMP JUMPDEST JUMPDEST DUP3 DUP3 DIV SWAP1 POP SWAP3 SWAP2 POP POP JUMP JUMPDEST PUSH32 0x4174206C656173742035302520636F6E7472696275746F72206E65656420746F PUSH1 0x0 DUP3 ADD MSTORE PUSH32 0x20766F746520666F722074686973207265717565737400000000000000000000 PUSH1 0x20 DUP3 ADD MSTORE POP JUMP JUMPDEST PUSH1 0x0 PUSH2 0x1F99 PUSH1 0x36 DUP4 PUSH2 0x14FA JUMP JUMPDEST SWAP2 POP PUSH2 0x1FA4 DUP3 PUSH2 0x1F3D JUMP JUMPDEST PUSH1 0x40 DUP3 ADD SWAP1 POP SWAP2 SWAP1 POP JUMP JUMPDEST PUSH1 0x0 PUSH1 0x20 DUP3 ADD SWAP1 POP DUP2 DUP2 SUB PUSH1 0x0 DUP4 ADD MSTORE PUSH2 0x1FC8 DUP2 PUSH2 0x1F8C JUMP JUMPDEST SWAP1 POP SWAP2 SWAP1 POP JUMP JUMPDEST PUSH1 0x0 DUP2 SWAP1 POP DUP2 PUSH1 0x0 MSTORE PUSH1 0x20 PUSH1 0x0 KECCAK256 SWAP1 POP SWAP2 SWAP1 POP JUMP JUMPDEST PUSH1 0x0 DUP2 SLOAD PUSH2 0x1FF1 DUP2 PUSH2 0x1A78 JUMP JUMPDEST PUSH2 0x1FFB DUP2 DUP7 PUSH2 0x14FA JUMP JUMPDEST SWAP5 POP PUSH1 0x1 DUP3 AND PUSH1 0x0 DUP2 EQ PUSH2 0x2016 JUMPI PUSH1 0x1 DUP2 EQ PUSH2 0x202C JUMPI PUSH2 0x205F JUMP JUMPDEST PUSH1 0xFF NOT DUP4 AND DUP7 MSTORE DUP2 ISZERO ISZERO PUSH1 0x20 MUL DUP7 ADD SWAP4 POP PUSH2 0x205F JUMP JUMPDEST PUSH2 0x2035 DUP6 PUSH2 0x1FCF JUMP JUMPDEST PUSH1 0x0 JUMPDEST DUP4 DUP2 LT ISZERO PUSH2 0x2057 JUMPI DUP2 SLOAD DUP2 DUP10 ADD MSTORE PUSH1 0x1 DUP3 ADD SWAP2 POP PUSH1 0x20 DUP2 ADD SWAP1 POP PUSH2 0x2038 JUMP JUMPDEST DUP1 DUP9 ADD SWAP6 POP POP POP JUMPDEST POP POP POP SWAP3 SWAP2 POP POP JUMP JUMPDEST PUSH1 0x0 DUP2 SWAP1 POP SWAP2 SWAP1 POP JUMP JUMPDEST PUSH1 0x0 PUSH2 0x208D PUSH2 0x2088 PUSH2 0x2083 DUP5 PUSH2 0x1493 JUMP JUMPDEST PUSH2 0x2068 JUMP JUMPDEST PUSH2 0x1493 JUMP JUMPDEST SWAP1 POP SWAP2 SWAP1 POP JUMP JUMPDEST PUSH1 0x0 PUSH2 0x209F DUP3 PUSH2 0x2072 JUMP JUMPDEST SWAP1 POP SWAP2 SWAP1 POP JUMP JUMPDEST PUSH1 0x0 PUSH2 0x20B1 DUP3 PUSH2 0x2094 JUMP JUMPDEST SWAP1 POP SWAP2 SWAP1 POP JUMP JUMPDEST PUSH2 0x20C1 DUP2 PUSH2 0x20A6 JUMP JUMPDEST DUP3 MSTORE POP POP JUMP JUMPDEST PUSH1 0x0 PUSH1 0xC0 DUP3 ADD SWAP1 POP PUSH2 0x20DC PUSH1 0x0 DUP4 ADD DUP10 PUSH2 0x162A JUMP JUMPDEST DUP2 DUP2 SUB PUSH1 0x20 DUP4 ADD MSTORE PUSH2 0x20EE DUP2 DUP9 PUSH2 0x1FE4 JUMP JUMPDEST SWAP1 POP PUSH2 0x20FD PUSH1 0x40 DUP4 ADD DUP8 PUSH2 0x162A JUMP JUMPDEST PUSH2 0x210A PUSH1 0x60 DUP4 ADD DUP7 PUSH2 0x162A JUMP JUMPDEST PUSH2 0x2117 PUSH1 0x80 DUP4 ADD DUP6 PUSH2 0x16B9 JUMP JUMPDEST PUSH2 0x2124 PUSH1 0xA0 DUP4 ADD DUP5 PUSH2 0x20B8 JUMP JUMPDEST SWAP8 SWAP7 POP POP POP POP POP POP POP JUMP JUMPDEST PUSH1 0x0 PUSH1 0x20 PUSH1 0x1F DUP4 ADD DIV SWAP1 POP SWAP2 SWAP1 POP JUMP JUMPDEST PUSH1 0x0 DUP3 DUP3 SHL SWAP1 POP SWAP3 SWAP2 POP POP JUMP JUMPDEST PUSH1 0x0 PUSH1 0x8 DUP4 MUL PUSH2 0x217C PUSH32 0xFFFFFFFFFFFFFFFFFFFFFFFFFFFFFFFFFFFFFFFFFFFFFFFFFFFFFFFFFFFFFFFF DUP3 PUSH2 0x213F JUMP JUMPDEST PUSH2 0x2186 DUP7 DUP4 PUSH2 0x213F JUMP JUMPDEST SWAP6 POP DUP1 NOT DUP5 AND SWAP4 POP DUP1 DUP7 AND DUP5 OR SWAP3 POP POP POP SWAP4 SWAP3 POP POP POP JUMP JUMPDEST PUSH1 0x0 PUSH2 0x21B9 PUSH2 0x21B4 PUSH2 0x21AF DUP5 PUSH2 0x1620 JUMP JUMPDEST PUSH2 0x2068 JUMP JUMPDEST PUSH2 0x1620 JUMP JUMPDEST SWAP1 POP SWAP2 SWAP1 POP JUMP JUMPDEST PUSH1 0x0 DUP2 SWAP1 POP SWAP2 SWAP1 POP JUMP JUMPDEST PUSH2 0x21D3 DUP4 PUSH2 0x219E JUMP JUMPDEST PUSH2 0x21E7 PUSH2 0x21DF DUP3 PUSH2 0x21C0 JUMP JUMPDEST DUP5 DUP5 SLOAD PUSH2 0x214C JUMP JUMPDEST DUP3 SSTORE POP POP POP POP JUMP JUMPDEST PUSH1 0x0 SWAP1 JUMP JUMPDEST PUSH2 0x21FC PUSH2 0x21EF JUMP JUMPDEST PUSH2 0x2207 DUP2 DUP5 DUP5 PUSH2 0x21CA JUMP JUMPDEST POP POP POP JUMP JUMPDEST JUMPDEST DUP2 DUP2 LT ISZERO PUSH2 0x222B JUMPI PUSH2 0x2220 PUSH1 0x0 DUP3 PUSH2 0x21F4 JUMP JUMPDEST PUSH1 0x1 DUP2 ADD SWAP1 POP PUSH2 0x220D JUMP JUMPDEST POP POP JUMP JUMPDEST PUSH1 0x1F DUP3 GT ISZERO PUSH2 0x2270 JUMPI PUSH2 0x2241 DUP2 PUSH2 0x1FCF JUMP JUMPDEST PUSH2 0x224A DUP5 PUSH2 0x212F JUMP JUMPDEST DUP2 ADD PUSH1 0x20 DUP6 LT ISZERO PUSH2 0x2259 JUMPI DUP2 SWAP1 POP JUMPDEST PUSH2 0x226D PUSH2 0x2265 DUP6 PUSH2 0x212F JUMP JUMPDEST DUP4 ADD DUP3 PUSH2 0x220C JUMP JUMPDEST POP POP JUMPDEST POP POP POP JUMP JUMPDEST PUSH1 0x0 DUP3 DUP3 SHR SWAP1 POP SWAP3 SWAP2 POP POP JUMP JUMPDEST PUSH1 0x0 PUSH2 0x2293 PUSH1 0x0 NOT DUP5 PUSH1 0x8 MUL PUSH2 0x2275 JUMP JUMPDEST NOT DUP1 DUP4 AND SWAP2 POP POP SWAP3 SWAP2 POP POP JUMP JUMPDEST PUSH1 0x0 PUSH2 0x22AC DUP4 DUP4 PUSH2 0x2282 JUMP JUMPDEST SWAP2 POP DUP3 PUSH1 0x2 MUL DUP3 OR SWAP1 POP SWAP3 SWAP2 POP POP JUMP JUMPDEST PUSH2 0x22C5 DUP3 PUSH2 0x14EF JUMP JUMPDEST PUSH8 0xFFFFFFFFFFFFFFFF DUP2 GT ISZERO PUSH2 0x22DE JUMPI PUSH2 0x22DD PUSH2 0x172C JUMP JUMPDEST JUMPDEST PUSH2 0x22E8 DUP3 SLOAD PUSH2 0x1A78 JUMP JUMPDEST PUSH2 0x22F3 DUP3 DUP3 DUP6 PUSH2 0x222F JUMP JUMPDEST PUSH1 0x0 PUSH1 0x20 SWAP1 POP PUSH1 0x1F DUP4 GT PUSH1 0x1 DUP2 EQ PUSH2 0x2326 JUMPI PUSH1 0x0 DUP5 ISZERO PUSH2 0x2314 JUMPI DUP3 DUP8 ADD MLOAD SWAP1 POP JUMPDEST PUSH2 0x231E DUP6 DUP3 PUSH2 0x22A0 JUMP JUMPDEST DUP7 SSTORE POP PUSH2 0x2386 JUMP JUMPDEST PUSH1 0x1F NOT DUP5 AND PUSH2 0x2334 DUP7 PUSH2 0x1FCF JUMP JUMPDEST PUSH1 0x0 JUMPDEST DUP3 DUP2 LT ISZERO PUSH2 0x235C JUMPI DUP5 DUP10 ADD MLOAD DUP3 SSTORE PUSH1 0x1 DUP3 ADD SWAP2 POP PUSH1 0x20 DUP6 ADD SWAP5 POP PUSH1 0x20 DUP2 ADD SWAP1 POP PUSH2 0x2337 JUMP JUMPDEST DUP7 DUP4 LT ISZERO PUSH2 0x2379 JUMPI DUP5 DUP10 ADD MLOAD PUSH2 0x2375 PUSH1 0x1F DUP10 AND DUP3 PUSH2 0x2282 JUMP JUMPDEST DUP4 SSTORE POP JUMPDEST PUSH1 0x1 PUSH1 0x2 DUP9 MUL ADD DUP9 SSTORE POP POP POP JUMPDEST POP POP POP POP POP POP JUMP JUMPDEST PUSH1 0x0 DUP2 SWAP1 POP SWAP2 SWAP1 POP JUMP JUMPDEST PUSH1 0x0 PUSH2 0x23B3 PUSH2 0x23AE PUSH2 0x23A9 DUP5 PUSH2 0x238E JUMP JUMPDEST PUSH2 0x2068 JUMP JUMPDEST PUSH2 0x1620 JUMP JUMPDEST SWAP1 POP SWAP2 SWAP1 POP JUMP JUMPDEST PUSH2 0x23C3 DUP2 PUSH2 0x2398 JUMP JUMPDEST DUP3 MSTORE POP POP JUMP JUMPDEST PUSH1 0x0 PUSH1 0xC0 DUP3 ADD SWAP1 POP PUSH2 0x23DE PUSH1 0x0 DUP4 ADD DUP10 PUSH2 0x162A JUMP JUMPDEST DUP2 DUP2 SUB PUSH1 0x20 DUP4 ADD MSTORE PUSH2 0x23F0 DUP2 DUP9 PUSH2 0x1546 JUMP JUMPDEST SWAP1 POP PUSH2 0x23FF PUSH1 0x40 DUP4 ADD DUP8 PUSH2 0x162A JUMP JUMPDEST PUSH2 0x240C PUSH1 0x60 DUP4 ADD DUP7 PUSH2 0x23BA JUMP JUMPDEST PUSH2 0x2419 PUSH1 0x80 DUP4 ADD DUP6 PUSH2 0x16B9 JUMP JUMPDEST PUSH2 0x2426 PUSH1 0xA0 DUP4 ADD DUP5 PUSH2 0x20B8 JUMP JUMPDEST SWAP8 SWAP7 POP POP POP POP POP POP POP JUMP JUMPDEST PUSH32 0x596F7520646F6E74206861766520616E7920636F6E747269627574656420616D PUSH1 0x0 DUP3 ADD MSTORE PUSH32 0x6F756E7420210000000000000000000000000000000000000000000000000000 PUSH1 0x20 DUP3 ADD MSTORE POP JUMP JUMPDEST PUSH1 0x0 PUSH2 0x248D PUSH1 0x26 DUP4 PUSH2 0x14FA JUMP JUMPDEST SWAP2 POP PUSH2 0x2498 DUP3 PUSH2 0x2431 JUMP JUMPDEST PUSH1 0x40 DUP3 ADD SWAP1 POP SWAP2 SWAP1 POP JUMP JUMPDEST PUSH1 0x0 PUSH1 0x20 DUP3 ADD SWAP1 POP DUP2 DUP2 SUB PUSH1 0x0 DUP4 ADD MSTORE PUSH2 0x24BC DUP2 PUSH2 0x2480 JUMP JUMPDEST SWAP1 POP SWAP2 SWAP1 POP JUMP INVALID LOG2 PUSH5 0x6970667358 0x22 SLT KECCAK256 DUP5 RETURNDATASIZE CREATE 0x24 JUMP JUMP 0x25 CALLER 0xE 0xB5 0x49 INVALID BASEFEE 0x2E PUSH8 0xC6017D93881171BF LOG1 0x1E 0xAD PUSH20 0x4719477E1A64736F6C6343000812003300000000 "},"methodIdentifiers":{"completeAt()":"4c4cea5a","contribute(address)":"73e888fd","contributiors(address)":"0a771370","createWithdrawRequest(string,uint256,address)":"a46752ae","creator()":"02d05d3f","deadline()":"29dcb0cf","getContractBalance()":"6f9fb98a","getProjectDetails()":"ff3a9c7e","minimumContribution()":"937e09b1","noOfContributers()":"24274ee9","numOfWithdrawRequests()":"b40141bf","projectDes()":"03c29d58","projectTitle()":"c3e20c9f","raisedAmount()":"c59ee1dc","requestRefund()":"d5cef133","state()":"c19d93fb","targetContribution()":"b82c86d6","voteWithdrawRequest(uint256)":"4e695a37","withdrawRequestedAmount(uint256)":"752e19f9","withdrawRequests(uint256)":"992a7dfb"}}}}}